:100E00008731182F002908007E14873120007F08C1
:100E1000FC002E000F1C132F913190218731BC3123
:100E200016242E000F107C082000FF007E10090001
:100E300087311A2FF0308400213085000030FE0009
:100E40000630FF00BC3164248731FD012000DE0143
:100E5000DF01E001E101E201E301E401E501E60176
:100E6000CD308400003085001F30FE000030FF00D0
:100E7000BC316424873120308400013085002A3061
:100E8000FE000030FF00BC3164248731A0308400B4
:100E9000013085004D30FE000030FF00BC3164247D
:100EA000873120308400023085001130FE00003090
:100EB000FF00BC3164247E102000B03177287034EC
:100EC00051340334863440340D344F34EB343E34E3
:100ED000CC34D13487343534BD34F5340B345E34FE
:100EE000D034F834F234D534E2346C3431340C3448
:100EF000AD34FC342134C3347834C1340634C234C4
:100F00004C345534E6344A343434483411341E34C5
:100F1000DA34E7341A348434A0349634A734E33412
:100F20007F34AF3463349C34FA3423345B34793403
:100F3000C8349E34BA34B234C934223412344B34F7
:100F4000B334A134B63432344934A234E134893470
:100F5000393410346634C53407348F345434EA34A9
:100F60009134CA343F34F9341934F034D734463428
:100F7000BC3428341B346134E8342F346A34AE3442
:100F80009D34F6344E340934143477344D34DB3424
:100F90001F342E347B347C34F1344334A334003496
:100FA000B83413348C348534B934293475348834E6
:100FB000FD34D23456341C34503497344134E53443
:100FC0003B346034B534C0346434EE349834D634B1
:100FD0002D342534A434AA34CD347D34A83483345C
:100FE000C634AB34BE344434993426343C34CE3425
:100FF0009F34BF34D334CB3476347A347E34823465
:1010000001348A349A3480341D340E34B0345C3464
:10101000D43438346234F4343034E0348E345334DD
:10102000B73402345734AC34A63452340A346D34F5
:101030009234653417342434333445347234743480
:10104000B134B434F7345D34ED342C34FF344734E8
:1010500037345A349034BB34DF342A34163459349C
:101060009534D934C434273467347334C73468347E
:10107000FE34A534DD346B345F349334D834EC342F
:1010800005343A348D346E34FB343D34A93469343C
:101090003634F3349434DE34EF3415346F348B3417
:1010A0009B3408340F34DC34813418342034043455
:1010B000E4347134CF34E9342B34423458340134BD
:1010C000A034A9346234D6343F348534A734B634DE
:1010D000D434FA341534663417340934BD345D34ED
:1010E000143434342634593472349134543406343C
:1010F0004F34F834B0345B347434933499348C34D2
:10110000F2344534CD34EA344E34AD3410344A34FC
:10111000E534CA34EE34DF34C6346F349F34883457
:101120008E340234CC340834A834773494346D349B
:101130002134B1342834E434393479349634603489
:101140007134813416342E34E6347834B934C434EE
:1011500046349A344234AE34B7347C344334B334F6
:1011600022341A348634C23432343D342D349C3423
:10117000D2342934E93463349B34D13431343834B3
:101180005E341E3436344134BB34033418342B34CB
:101190003E34BF3468346134FC345234C034DE34FD
:1011A000E0340A34583413345A340034BE341C3416
:1011B00090340E3453341234FD34E2346E34BA3485
:1011C000CE342434273444347F348734A334A134D8
:1011D000D53450344034E334F9348334F734C734ED
:1011E000A2343534C834DB341934AB342F341134E1
:1011F0002534ED3433349E345534E1344834AF343F
:1012000073348434DA342A34AA345134EB349D34C0
:101210009534B234CB34E73470348034FE344C34FB
:1012200065340434EF34C534F134C3343A34B4345F
:10123000F5345F3423348934DD343034A5348B34D1
:10124000D334F634DC344D346434D734F0348F3452
:10125000EC34563437345C34A4340D3407347634EB
:101260008A342C340B34B534D834C1341F34E834C8
:101270003B34F4344B341B3447346C3449346734D6
:101280007B349234CF3475347E342034D9347D3479
:101290003C3497347A34D03405346B340F341D34F5
:1012A000FB348234983457348D34F3346A34BC348C
:1012B000AC34C934A634FF34B83469340C344C34FB
:1012C0004D34723407345A34493433348D34A234B3
:1012D000AB3446343D3463340D34A0349734FF349A
:1012E000F034F534FA34C034E934DB346234E434B5
:1012F000E13474344334DC348634183429343734DC
:10130000F4340634E234ED346F34903448341E340F
:101310002D341D34EA34733494345434DF3425349A
:10132000F63447342734D93411347734C93484340B
:101330001C345B345C3451348134A63422343E3462
:1013400024349634C8348A34EC3482347C340934FE
:10135000B83445344A345734BB342F3450347534A0
:101360008E34613470348C346C34AF34D034FD340A
:10137000B4341B34AE34DE34FE343B34B53436344E
:10138000BD34553401340E349C34413456345F340A
:10139000B334263403348334BA3413344B34CA346C
:1013A000C5340A34F8346034A534B934C734C3348E
:1013B00098343234FB341234F934A7349234AA34DA
:1013C0006834F33478347E340534203421340234E4
:1013D000E834BF34F234B03459348F34D234CB349F
:1013E000873465341534F1341A34B2343034AD34C2
:1013F000EE345834A3348B3466341F342C34D73451
:101400005D3419348534A834E634D3346B34A134D4
:101410000C34913493346A345E340B347934E334CD
:10142000DD3400344F343C3489346E3471346934E3
:10143000A934AC344034E53499342834C6343134DA
:101440004E347A34CD3408349E347D34EF3417343E
:10145000FC348834D834A4346D3444349534D134D5
:10146000B734D4349B34BE342A34343464342B340B
:10147000CF342E34EB343834CE342334E0343A34A1
:101480003F34F7347B349F3410345334BC345234FB
:1014900067341634E734803476340434C434B634D4
:1014A000C134C2347F349A34DA34D53439344234D6
:1014B00014349D34B1340F343534D634CC34B9348B
:1014C000DA3438340C34A2349C3409341F340634F2
:1014D000B134B634FD341A34693423343034C4346E
:1014E000DE340134D134F4345834293437341C34E4
:1014F0007D34D534BF34FF34BD34C834C934CF341F
:101500006534BE347B347834973498346734083487
:10151000B33426345734F734FA344034AD348E348F
:101520007534A6347C34DB3491348B3451349934A3
:10153000D43417347A3490348D34CE346334CB348D
:101540004E34A034AB3418343A345B3450347F34E6
:1015500021347434C134BB34B834B734BA340B34A6
:1015600035349534313459349A344D340434073495
:101570001E345A3476341334F33471348334D03413
:1015800086340334A83439344234AA342834E63457
:10159000E434D8345D34D334D0346E346F3496347C
:1015A000FB345E34BC345634C2345F3485349B34EF
:1015B000E734AF34D2343B3484346A34A734533400
:1015C000C53444344934A534F934363472343D34A6
:1015D0002C34D9341B34A134F5344F3493349D3436
:1015E0006834473441341634CA342A344C34A33472
:1015F0008734D634E53419342E34773415346D34C9
:101600007034C034DF34B23400344634ED34C63480
:101610006C344334603492342D34A934223445344C
:101620008F3434345534AE34A4340A34663432340E
:10163000E034DC340234AC34E83420348C34893483
:1016400062344A34FE34EE34C334E3343C34F1348F
:1016500079340534E934F63427343334CC34F23475
:101660009E34113481347E34803410348A34823490
:101670009F3448340D34D734B434FC342F34B5346B
:10168000C734DD34883414346B342B345434EA34A6
:101690001D3494345C34B034EF3412342434CD34FB
:1016A000EB34E134E234643473343F340E34523476
:1016B000613425343E34F8340F344B34EC34C034C8
:1016C00000343034F634023449343D3410346E344E
:1016D0002034C934A6342F34FE342C342B347534E2
:1016E0002E3445342634AB344834A9348034FC34A9
:1016F0000434CC34D334B534BA34A334383431342C
:101700007D340134D934A7347B349634B634633411
:1017100069344E34F734DE34E0347834CA3450342B
:10172000AA344134913465348834E4342134853426
:10173000DA343A342734BE341C343E3442345E3416
:10174000173452347F341F34893424346F348F3447
:101750005C34673474340E34123487348D34E93495
:101760003434ED347334C434F83461345B340534C8
:10177000DF3459344C349734793483341834A434F6
:1017800055349534EB34BD345334F534F134573497
:10179000663446349F34B23481340934513486344B
:1017A00022341634DD342334933476342934C2346D
:1017B000D7341D34D434BF3436343F34EA344B3458
:1017C00011343234B934623454346034D6346D3424
:1017D00043349A340D3492349C34B034EF3458345A
:1017E0006C349D3477342D347034FA34F334B3349C
:1017F0000B34E23440347E34F4348A34E5348C34AF
:101800003C3456347134D1346434E13482340A3493
:10181000CB34133415349034EC3403349934AF346E
:1018200014345D340F3433344A349434A534A8343A
:1018300035341B34E3346A34C6342834FF344D3431
:10184000E73425348434AC340834AE34C534A2349F
:101850002A34B83437340C347A34A034C334CE3418
:10186000AD3406341A349E348B34FB34D534D03442
:10187000C1341E34D034B4349B34B1344434F234E3
:101880004734C7346834CF347234BB344F345A349D
:10189000F934DC346B34DB34D234E8347C34C8348F
:1018A000EE349834A134E634D834393407345F3414
:1018B000FD348E341934B7343B34BC34CD347C34ED
:1018C000E33481347334B2341134BF346F34203490
:1018D0009834FE3475349634EF346C34DA34503442
:1018E000E1340934723454344534BA3434348034F5
:1018F0005B34ED343E3453342C348734A4345734C1
:10190000F33433343F343C34B7346734B434A33421
:10191000253460344F3407346B341B34473415346A
:101920000F34E4340A34EA34D1343234783436347F
:1019300049348D344B34D234BC34A534DC341D34BA
:101940000D344D34CD349A3482345F34FC349434C5
:101950006534BE34E234F434C9341E344434CB34F8
:101960009E340C346434713426346334B334143408
:10197000E834403470348A340E34193442346D34CF
:10198000AC34883410345C34DF344134A934AD34A1
:10199000E534FB347434CC34D53406348E345934C5
:1019A0008634CE341F343D347634E0348F34B93449
:1019B000773427347B34A634D8342934D334EC3408
:1019C000B8341334F734FA34C33451346A34DE345F
:1019D0004A345A34EB34C2348B342334483492348E
:1019E000CF346234A8349934F834D0342E3485346A
:1019F00061344334C834BD34F03405349334CA34CC
:101A00004E34F1347D343034FD34C43469346634BA
:101A10002F340834B1345234F9342134E6347A3472
:101A20002B34DD3439348434FF34C0349134D6342B
:101A30003734D4347F342D349B345D34A1343B347B
:101A40006E34B534C53446340434F5349034EE3451
:101A50007E3483341C3403345634B634AA34003410
:101A6000173401343534553479340B341234BB34E3
:101A70001A343134E734023428341634C134F6349D
:101A8000A234DB3418349C348934683438349734C5
:101A9000AB34C7342A34D7343A34F234C63424341D
:101AA0004C34B0345834A03422345E349D34D934AC
:101AB000A734E934AE34AF348C3495349F342834B1
:101AC000B7342034D734B0343034C3340934193403
:101AD000C0346734D63400343C347E34E734E934DF
:101AE000F43408345A34F834B8342E340534A63477
:101AF00025349E345C34D83415340D34E134F63456
:101B0000113454346B34CD342134463466345E346D
:101B10008434AD340634383429344434C534A234E2
:101B2000CE34F134AA34C134403471348634B534FF
:101B3000EF34FC343634A834CB340A3448342734F8
:101B400045346434A334AF348C34B234C6349F3457
:101B500007348934DC341734D33449347934FB34D2
:101B6000FE341D34D034B934883443345234BC3458
:101B7000013478342B347D349434C7340E34DE345D
:101B8000A534D5349B34CC34F73461347A34C23440
:101B90007434813439340334AB349634A03437345C
:101BA000BD342D34723475343F34C934D4348E345A
:101BB0006F34F9348D34ED346234DB341C34DF346B
:101BC0000434AC341B346C3414344B346334D034AC
:101BD000BF34B4348234EC347B341A345934923404
:101BE000D23410346034B6343D345F34E63480345B
:101BF0006E347034C434F2343534D9347C34EE3439
:101C0000E5344134A4345B345034DD34BB344C34DB
:101C1000F3341F349D345D34573455345134973484
:101C2000E334583442344D349C347334BA34C834B9
:101C30007734313469342634AE34EA348A34DA34D1
:101C40002234B33487345634FA3493340B34343476
:101C500016343334E834E4345334BE34A934B13464
:101C60003A343E34F53490346A34CF343B34123451
:101C7000FD348F349A34A734473491349934EB349B
:101C80000F342434FF342334183485344E347F34F5
:101C90000C34E034A134D234D1342C342A344A34D4
:101CA00002344F341E34953468348B349834833482
:101CB0006D347634CA346534323413342F34C3343B
:101CC00082349A34A434BA348134603437343434AE
:101CD0003534FC348034A834513465346734ED3401
:101CE00030345F341034D3344A3427342F3413342F
:101CF000B9342A34D234CC34E134EF34AE34EB345A
:101D0000BE34F434BD34CF344334B334C5348834B2
:101D10008434B734DD3439344034CE3448346D340F
:101D20009B34723461347E34E734A1344E345334FE
:101D30002E3477343B34E234C934363422341B3405
:101D40006E347334B1340334B2344C348734A93430
:101D5000D4344D340F34D83415346C34AA34183498
:101D6000F634493457345D34FB347A3414349434C3
:101D70006334A0341134B0349E34DE340534463438
:101D8000C834EE344734DB34DC34243489349C34B6
:101D9000913497342934E9347B34C13407341E3408
:101DA000B834FD34FE34AC34C634623498344F3425
:101DB000F1347934E034E8346B3478345634B63462
:101DC0008D34043450348634CA346F342034E634CD
:101DD000EA34E534763417341C3474347F34BC343C
:101DE0000D342C348534F73466349634E4348B3433
:101DF00075343F344B34D9343834AF347C34DA342E
:101E00000B3483342D3431343234A234F5341D3460
:101E1000593441344534BF343C341F34F834F93438
:101E20008A34D034163425346934123499349D34CC
:101E300021349534AB340134A634D734B534C034AE
:101E40007D34FF3458340E343A349234D13455341E
:101E5000E33408349F34D6343E3452348E34FA346A
:101E6000A334C7340234CD34DF348F3464341934AE
:101E70008C34F334A7340C345E340A346A340934B5
:101E8000F03493345B344234C23406342334EC34BB
:101E90007134AD34B434CB34BB3470342834D534DD
:101EA0001A345C34333468345A3400344434903453
:101EB000A534C43426343D342B34F23454349634AF
:101EC000AD34DA341F34ED343334E13481346934E1
:101ED00008340D340A34DB34353477349A346434BE
:101EE000D134FC347834AA341B34D0346734A03471
:101EF000DD34FA346C34633471340534843417348B
:101F00006A3489344F3466347F34C634503455349F
:101F100092346F34BD34E734D234403472348D346B
:101F2000BB34EC34063442348A34E43488349D348F
:101F30007E347A3482342734133441341A34AF3443
:101F4000C834A4347634B434C234FE346D341C3412
:101F5000D93461343034B3347C34EA34F73429343E
:101F60000F34F2343B345134C134DE345F34E53461
:101F70002A342F3499340B345D34A3342B344A344F
:101F8000AB349534A534D33458345634EE34283435
:101F900031340034CC3415344634CA34E634863413
:101FA00038343C346534F534E3349F34D6345B3410
:101FB00009344934833470342D345334A9347D3496
:101FC000E234C434AC348E345E34B8342534F43462
:101FD000B9345734F334F13468344734B234A2346A
:101FE00059342034CE34343479345C3490340E3463
:101FF0001E34BE34D53422342334B134C9341834B9
:10200000623416342E3491343E3407348F34D8344D
:102010003F3493343D34D4349B34DF34853421341D
:10202000FB34113474349734C734D734DC344C3433
:10203000193445349834E934433402344B34BC34D5
:10204000C33404349C346B34F03475345234A734C4
:102050002634F634C534BA34CF34B034B734AE3461
:102060005A34A134BF3403348B34803412346E3488
:102070000C34EB34F934C03444342434EF341034A9
:10208000F834A8348C34E8347B34FF349E342C3458
:10209000CD34603436348734B5349434A634543473
:1020A00073343A3414344E3401341D34B634FD34B0
:1020B000373448344D343934CB34E034323400349E
:1020C0000034003400340034003400340034003470
:1020D0000034003400340034003400340034003460
:1020E0000034003400340034003400340034003450
:1020F0000034003400340034003400340034003440
:10210000003400340034003400340034003400342F
:10211000003400340034003400340034003400341F
:10212000003400340034003400340034003400340F
:1021300000340034003400340034003400340034FF
:1021400000340034003400340034003400340034EF
:1021500000340034003400340034003400340034DF
:1021600000340034003400340034003400340034CF
:1021700000340034003400340034003400340034BF
:1021800000340034003400340034003400340034AF
:10219000003400340034003400340034003400349F
:1021A000003400340034003400340034003400348F
:1021B000003400340034003400340034003400347F
:1021C000003400340034003400340034003400346F
:1021D000003400340034003400340034003400345F
:1021E000003400340034003400340034003400344F
:1021F000003400340034003400340034003400343F
:10220000003400340034003400340034003400342E
:10221000003400340034003400340034003400341E
:10222000003400340034003400340034003400340E
:1022300000340034003400340034003400340034FE
:1022400000340034003400340034003400340034EE
:1022500000340034003400340034003400340034DE
:1022600000340034003400340034003400340034CE
:1022700000340034003400340034003400340034BE
:1022800000340034003400340034003400340034AE
:10229000003400340034003400340034003400349E
:1022A000003400340034003400340034003400348E
:1022B0000034003400340034003400340034200092
:1022C0002C0803190800B7012C083702031808006E
:1022D0003708AD00AE01FF302905AF0001302A05F7
:1022E000B0002D082F07B1002E08303DB200F030AD
:1022F000B3002530B4003108330786003208343D7E
:1023000087000108B50037082B07B600360886009D
:102310008701350881000130AD002D08B707642919
:10232000BC31142491312000A0002008A700230014
:102330000F1EA9292000E401E301E10123000F1C85
:10234000A6290C082000A0002008A60023001013D6
:102350000800403011052000A00023000F083C3980
:1023600020002004A100A20121082100D5002000A6
:1023700022082100D600200063080319C729523023
:1023800064060319C72958306406031D922A2300E6
:102390000F1CCF290C082000A0002008A800230053
:1023A00010133E2A20002836A0002008E400E30194
:1023B000E30A922A200061080319372A5230640682
:1023C000031D0E2A6208A0002008F9002808BE316B
:1023D00068269131200027080319042A2808A00044
:1023E0002008F0006208BC317F2491312000A10058
:1023F0006208F03EA200A3012530A33D220886001A
:10240000230887002108312A6208F03EA000A101BC
:102410002530A13D2008860021082F2A5830640667
:10242000031D322A6208A0002008F0002808A83105
:102430000020913120006208003EA0000130031806
:102440000230A100F030A2002530A30020082207AE
:10245000A4002108233DA500240886002508870044
:10246000280881000130A0002008E207922A2808ED
:10247000A0002008E200E101E10A922A21005608AA
:10248000003A0319442A922A5508083A0319D22916
:10249000203A0319DA29922A922A20002836A0002D
:1024A0002008E400523020006406031D712A27082A
:1024B0000319692A6208F03E860087012530873DAE
:1024C0000108A0002008F0006208BC31A12491316D
:1024D0008A2A20006208F03E860087012530873D69
:1024E000872A583020006406031D892A6208003EAE
:1024F000A000013003180230A100F030A200253006
:10250000A3002008220786002108233D8700010838
:102510008A2AFF3023008C0001302000A000200810
:10252000E207080021005608003A0319982AA12A58
:1025300055080C3A03194D2A203A0319522AA12AA8
:10254000080008002000DA0107305A020318892B1E
:10255000D901063059020318DD2A5A08AF00B0012C
:102560002F08A9003008AA000630AB000030AC00EC
:10257000BD317325923100302000B100B830B20077
:1025800029083107B3002A08323DB400590833073F
:10259000840034080318340A85000008B50059087F
:1025A000433E86008701350881000130AF002F08C7
:1025B000D90706305902031CAD2AD9010A30590245
:1025C0000318FE2A59082C3E8600013087000108B6
:1025D0005F3E840087300318013E85000008AF008D
:1025E00059084F3E860087012F0881000130AF0057
:1025F0002F08D9070A305902031CE22A5803FF3A70
:10260000AF0051080739B0003008A900540843064C
:10261000BC31B324923120002F075306B10031089A
:10262000C9005403FF3AAF004F080739B000300823
:10263000A90044085006BC31B324923120002F0772
:102640005606B1003108CA005103FF3AAF005708DF
:102650000739B0003008A90045085506BC31B3243D
:10266000923120002F074F06B1003108CB005203F2
:10267000FF3AAF0056080739B0003008A9004608F5
:102680005306BC31B324923120002F075106B1000C
:102690003108CC005203FF3AAF0055080739B000AB
:1026A0003008A90047085006BC31B32492312000FD
:1026B0002F075306B1003108CD005403FF3AAF0095
:1026C00057080739B0003008A90048085606BC3141
:1026D000B324923120002F075806B1003108CE00F4
:1026E0004430AF002F08A9000630AA000030AB002C
:1026F0004930BF310D279231200029082A040319DF
:10270000892B0130AF002F08DA0707305A02031C6B
:10271000A82A07305A06031D8F2B003008005A08DC
:10272000AF00B0012F08B000AF012F08003EB2008B
:102730000230303DB3005F30B4008730B50032085E
:102740003407B6003308353DB70022002F082000BB
:102750003607840037080318370A85000008B800D8
:102760005A08B900BA013908BA00B9013908003E5F
:10277000BC0001303A3DBD005F30BE008730BF0075
:102780003C083E07C0003D083F3DC100220048080C
:1027900020004007840041080318410A8500000812
:1027A0003806C20042082300E10020005A08AF00AA
:1027B000B0012F08B000AF012F08003EB200023078
:1027C000303DB3005F30B4008730B50032083407C5
:1027D000B6003308353DB700220031082000360727
:1027E000840037080318370A85000008B8005A0823
:1027F000B900BA013908BA00B9013908003EBC0075
:1028000001303A3DBD005F30BE008730BF003C085C
:102810003E07C0003D083F3DC100220046082000A1
:102820004007840041080318410A85000008380663
:10283000C20042082300E20020005A08AF00B001A5
:102840002F08B000AF012F08003EB2000230303D2B
:10285000B3005F30B4008730B50032083407B600EB
:102860003308353DB70022003308200036078400C6
:1028700037080318370A85000008B8005A08B9005D
:10288000BA013908BA00B9013908003EBC0001306C
:102890003A3DBD005F30BE008730BF003C083E07B8
:1028A000C0003D083F3DC10022004908200040070C
:1028B000840041080318410A850000083806C20058
:1028C00042082300E30020005A08AF00B0012F089F
:1028D000B000AF012F08003EB2000230303DB3001F
:1028E0005F30B4008730B50032083407B6003308D3
:1028F000353DB70022002E08200036078400370837
:102900000318370A85000008B8005A08B900BA0150
:102910003908BA00B9013908003EBC0001303A3D1F
:10292000BD005F30BE008730BF003C083E07C000DE
:102930003D083F3DC10022004408200040078400BC
:1029400041080318410A850000083806C200420801
:102950002300E40020005A08AF00B0012F08B000A7
:10296000AF012F08003EB2000230303DB3005F30AF
:10297000B4008730B50032083407B6003308353D5F
:10298000B7002200300820003607840037080318FB
:10299000370A85000008B8005A08B900BA0139089A
:1029A000BA00B9013908003EBC0001303A3DBD0013
:1029B0005F30BE008730BF003C083E07C0003D08C6
:1029C0003F3DC10022004508200040078400410827
:1029D0000318410A850000083806C2004208230097
:1029E000E50020005A08AF00B0012F08B000AF0189
:1029F0002F08003EB2000230303DB3005F30B4001B
:102A00008730B50032083407B6003308353DB700CB
:102A10002200350820003607840037080318370ADB
:102A200085000008B8005A08B900BA013908BA0090
:102A3000B9013908003EBC0001303A3DBD005F30AD
:102A4000BE008730BF003C083E07C0003D083F3D48
:102A5000C1002200470820004007840041080318F5
:102A6000410A850000083806C20042082300E6003B
:102A700020005A08AF00B0012F08B000AF012F08A6
:102A8000003EB2000230303DB3005F30B40087300A
:102A9000B50032083407B6003308353DB7002200D0
:102AA000320820003607840037080318370A8500EB
:102AB0000008B8005A08B900BA013908BA00B901CB
:102AC0003908003EBC0001303A3DBD005F30BE0019
:102AD0008730BF003C083E07C0003D083F3DC100B5
:102AE00022002C0820004007840041080318410AF6
:102AF000850000083806C20042082300E7002000D5
:102B00005A08AF00B0012F08B000AF012F08003EF7
:102B1000B2000230303DB3005F30B4008730B50002
:102B200032083407B6003308353DB70022003408B8
:102B300020003607840037080318370A850000088C
:102B4000B8005A08B900BA013908BA00B901390801
:102B5000003EBC0001303A3DBD005F30BE00873012
:102B6000BF003C083E07C0003D083F3DC1002200B9
:102B70002D0820004007840041080318410A850001
:102B800000083806C20042082300E80020005A0866
:102B9000AF00B0012F08B000AF012F08003EB20017
:102BA0000230303DB3005F30B4008730B5003208EA
:102BB0003407B6003308353DB70022002D08200049
:102BC0003607840037080318370A85000008B80064
:102BD0005A08B900BA013908BA00B9013908003EEB
:102BE000BC0001303A3DBD005F30BE008730BF0001
:102BF0003C083E07C0003D083F3DC100220044089C
:102C000020004007840041080318410A850000089D
:102C10003806C20042082300D90020005A08AF003D
:102C2000B0012F08B000AF012F08003EB200023003
:102C3000303DB3005F30B4008730B5003208340750
:102C4000B6003308353DB7002200300820003607B3
:102C5000840037080318370A85000008B8005A08AE
:102C6000B900BA013908BA00B9013908003EBC0000
:102C700001303A3DBD005F30BE008730BF003C08E8
:102C80003E07C0003D083F3DC1002200490820002A
:102C90004007840041080318410A850000083806EF
:102CA000C20042082300DA0020005A08AF00B00139
:102CB0002F08B000AF012F08003EB2000230303DB7
:102CC000B3005F30B4008730B50032083407B60077
:102CD0003308353DB70022002C0820003607840059
:102CE00037080318370A85000008B8005A08B900E9
:102CF000BA013908BA00B9013908003EBC000130F8
:102D00003A3DBD005F30BE008730BF003C083E0743
:102D1000C0003D083F3DC100220047082000400799
:102D2000840041080318410A850000083806C200E3
:102D300042082300DB0020005A08AF00B0012F0832
:102D4000B000AF012F08003EB2000230303DB300AA
:102D50005F30B4008730B50032083407B60033085E
:102D6000353DB700220035082000360784003708BB
:102D70000318370A85000008B8005A08B900BA01DC
:102D80003908BA00B9013908003EBC0001303A3DAB
:102D9000BD005F30BE008730BF003C083E07C0006A
:102DA0003D083F3DC1002200460820004007840046
:102DB00041080318410A850000083806C20042088D
:102DC0002300DC0020005A08AF00B0012F08B0003B
:102DD000AF012F08003EB2000230303DB3005F303B
:102DE000B4008730B50032083407B6003308353DEB
:102DF000B700220033082000360784003708031884
:102E0000370A85000008B8005A08B900BA01390825
:102E1000BA00B9013908003EBC0001303A3DBD009E
:102E20005F30BE008730BF003C083E07C0003D0851
:102E30003F3DC100220048082000400784004108AF
:102E40000318410A850000083806C2004208230022
:102E5000DD0020005A08AF00B0012F08B000AF011C
:102E60002F08003EB2000230303DB3005F30B400A6
:102E70008730B50032083407B6003308353DB70057
:102E80002200340820003607840037080318370A68
:102E900085000008B8005A08B900BA013908BA001C
:102EA000B9013908003EBC0001303A3DBD005F3039
:102EB000BE008730BF003C083E07C0003D083F3DD4
:102EC000C100220045082000400784004108031883
:102ED000410A850000083806C20042082300DE00CF
:102EE00020005A08AF00B0012F08B000AF012F0832
:102EF000003EB2000230303DB3005F30B400873096
:102F0000B50032083407B6003308353DB70022005B
:102F1000310820003607840037080318370A850077
:102F20000008B8005A08B900BA013908BA00B90156
:102F30003908003EBC0001303A3DBD005F30BE00A4
:102F40008730BF003C083E07C0003D083F3DC10040
:102F500022002F0820004007840041080318410A7E
:102F6000850000083806C20042082300DF00200068
:102F70005A08AF00B0012F08B000AF012F08003E83
:102F8000B2000230303DB3005F30B4008730B5008E
:102F900032083407B6003308353DB7002200320846
:102FA00020003607840037080318370A8500000818
:102FB000B8005A08B900BA013908BA00B90139088D
:102FC000003EBC0001303A3DBD005F30BE0087309E
:102FD000BF003C083E07C0003D083F3DC100220045
:102FE0002E0820004007840041080318410A85008C
:102FF00000083806C20042082300E0000130080043
:103002002000AD0017112D087F398038BC31902483
:103012009831FF30BC3190242000AC002C08AE0067
:1030220017152E0808002000AD002D088600870124
:103032000108AB002B082300A00020002D08860009
:103042008701413F2300A10020002D08860087014F
:10305200423F2300A20020002D0886008701433F43
:103062002300A30020002D0886008701443F23008F
:10307200A40020002D0886008701453F2300A500FB
:1030820020002D0886008701463F2300A60020006D
:103092002D0886008701473F2300A70020002D0846
:1030A20086008701483F2300A80020002D088600E3
:1030B2008701493F2300A90020002D080A3E86000F
:1030C200870101080139AB002B082300AA00200068
:1030D2002D080A3E8600870101360139AB002B0814
:1030E2002300AB0020002D080A3E8600870101085C
:1030F200AB000230AB36890B7B282B080139AC00C0
:103102002C082300AC0020002D080A3E860087010F
:103112000108AB000330AB36890B8C282B08013930
:10312200AC002C082300AD0020002D080A3E8600CA
:1031320087010108AB000430AB36890B9D282B08B0
:103142000139AC002C082300AE0020002D080A3EF5
:10315200860087010108AB000530AB36890BAE282B
:103162002B080139AC002C082300AF0020002D08E9
:103172000B3E8600870101080139AB002B082300B2
:10318200B00020002D080B3E860087010136013970
:10319200AB002B082300B10020002D080B3E860057
:1031A20087010108AB000230AB36890BD5282B080A
:1031B2000139AC002C082300B20020002D080C3E7F
:1031C2008600870101080139AB002B082300B300F8
:1031D20020002D080C3E8600870101360139AB0024
:1031E2002B082300B40020002D080C3E8600870126
:1031F2000108AB000230AB36890BFC282B080139E1
:10320200AC002C082300B50020002D080C3E8600DF
:1032120087010108AB000330AB36890B0D292B085F
:103222000139AC002C082300B60020002D080D3E09
:10323200860087010108BC31432408002D30840038
:10324200B830850000082100BC000430BC36890B70
:1032520027293C080339BD00BE012A308400B8305A
:1032620085000008BF00C001BF35C00DBF35C00DCD
:103272003D083F042200E40021003E0840042200F1
:10328200E500E601E51BE6036608E7002D30840051
:10329200B830850000082100BC000230BC36890B22
:1032A2004F293C080339BD00BE012B308400B830E1
:1032B20085000008BF00C001BF35C00DBF35C00D7D
:1032C2003D083F042200E80021003E08400422009D
:1032D200E900EA01E91BEA036A08EB002D308400E9
:1032E200B8308500000803392100BC00BD012C3034
:1032F2008400B83085000008BE00BF01BE35BF0D96
:10330200BE35BF0D3C083E042200EC0021003D0802
:103312003F042200ED00EE01ED1BEE036E08EF000C
:1033220031308400B830850000082100BC00043030
:10333200BC36890B99293C080339BD00BE012E30E9
:103342008400B83085000008BF00C001BF35C00D41
:10335200BF35C00D3D083F042200D00021003E08C9
:1033620040042200D100D201D11BD2035208D30063
:1033720031308400B830850000082100BC000230E2
:10338200BC36890BC1293C080339BD00BE012F3070
:103392008400B83085000008BF00C001BF35C00DF1
:1033A200BF35C00D3D083F042200D40021003E0875
:1033B20040042200D500D601D51BD6035608D700FB
:1033C20031308400B8308500000803392100BC0088
:1033D200BD0130308400B83085000008BE00BF0156
:1033E200BE35BF0DBE35BF0D3C083E042200D800DD
:1033F20021003D083F042200D900DA01D91BDA037B
:103402005A08DB002300360803190A2AA831D920FA
:10341200993122003808803E2000A900FF300318AD
:103422000030AA0022003808803E2000AB00FF30A6
:1034320003180030AC00BD317325993120002908F2
:103442002100BC0020002A082100BD00220039080A
:10345200803E2000A900FF3003180030AA0022009D
:103462003908803E2000AB00FF3003180030AC006A
:10347200BD31732599312000290821003C07BE0087
:1034820020002A0821003D3DBF002300280821001A
:10349200C000C10140082000A9002100410820000D
:1034A200AA00230028082100C200C301420820000C
:1034B200AB00210043082000AC00BD3173259931D7
:1034C20020002A0821003F02031D6B2A2000290840
:1034D20021003E02031C712A23003308031D7C2AAB
:1034E2007F302100BC003C082200A0007F30210078
:1034F200BC003C083A2C23002A080319E92A2200BE
:103502003808F03E860087012130873D01082100FE
:10351200BC00BD01BC09BD09BC0A0319BD0A3C08B7
:10352200FF3E2000C300003021003D3D2000C400CA
:10353200C501C41BC5034508C6000030CA000030DF
:10354200C9000030C8000030C7000030CE00003093
:10355200CD000030CC00FF30CB0033308400B830D7
:10356200850000082100BE00BF01C001C101410861
:103572002000D200210040082000D10021003F0895
:103582002000D00021003E082000CF00323084000D
:10359200B830850000082100C200C301C401C50182
:1035A20045082000D600210044082000D500210053
:1035B20043082000D400210042082000D300A0319B
:1035C20053209931200043082100C60046084F2BA2
:1035D20022003808F03E860087012130873D01082D
:1035E2002100BC00BD01BE01BF013F082000C60092
:1035F20021003E082000C50021003D082000C40033
:1036020021003C082000C3000030CA000030C9007D
:103612000030C8000030C7000030CE000030CD00BE
:103622000030CC00FF30CB0033308400B83085004E
:1036320000082100C000C101C201C30143082000EB
:10364200D200210042082000D100210041082000C0
:10365200D000210040082000CF0032308400B83072
:10366200850000082100C400C501C601C701470842
:103672002000D600210046082000D5002100450880
:103682002000D400210044082000D300A0315320A0
:103692009931200043082100C80048082200A000F8
:1036A20023002B080319C92B22003908003E2100F0
:1036B200BC00013003180230BD00F030BE002130E2
:1036C200BF003C083E0786003D083F3D87000108D9
:1036D200C000C101C009C109C00A0319C10A4008DA
:1036E200FF3E2000C30000302100413D2000C40005
:1036F200C501C41BC5034508C6000030CA0000301E
:10370200C9000030C8000030C7000030CE000030D1
:10371200CD000030CC00FF30CB0036308400B83012
:10372200850000082100C200C301C401C50145088B
:103732002000D200210044082000D10021004308CB
:103742002000D000210042082000CF003530840044
:10375200B830850000082100C600C701C801C901B0
:1037620049082000D600210048082000D500210089
:1037720047082000D400210046082000D300A031D1
:1037820053209931200043082100CA004A083A2CEC
:1037920022003908003E2100BC000130031802302B
:1037A200BD00F030BE002130BF003C083E0786005D
:1037B2003D083F3D87000108C000C101C201C301AD
:1037C20043082000C600210042082000C500210055
:1037D20041082000C400210040082000C30000303E
:1037E200CA000030C9000030C8000030C7000030F5
:1037F200CE000030CD000030CC00FF30CB003630A0
:103802008400B830850000082100C400C501C6014B
:10381200C70147082000D200210046082000D1003D
:10382200210045082000D000210044082000CF00DC
:1038320035308400B830850000082100C800C90175
:10384200CA01CB014B082000D60021004A08200003
:10385200D500210049082000D4002100480820009A
:10386200D300A03153209931200043082100CC001D
:103872004C082200A100230030080319C52C2200A5
:1038820050082100BC00220051082100BD00220086
:1038920052082100BE00220053082100BF0022006E
:1038A20064092100C000220065092100C100220034
:1038B20066092100C200220067092100C300C00A74
:1038C2000319C10A0319C20A0319C30A4008BC0733
:1038D2004108BD3D4208BE3D4308BF3D3F082000B0
:1038E200AC0021003E082000AB0021003D08200072
:1038F200AA0021003C082000A90022003E08210065
:10390200C40022003F082100C5000030C51BFF3063
:10391200C600C70044092000AD002100450920006F
:10392200AE00210046092000AF0021004709200017
:10393200B000AD0A0319AE0A0319AF0A0319B00A9F
:10394200BE3138269931200029082100C800200004
:103952002A082100C90020002B082100CA002000EB
:103962002C082100CB000830CB36CA0CC90CC80C7D
:10397200890BB52C22006408210048072200A6000A
:1039820065082100493D332D220050082100BC006A
:10399200220051082100BD00220052082100BE0071
:1039A200220053082100BF00220064092100C00048
:1039B200220065092100C100220066092100C2001F
:1039C200220067092100C300C00A0319C10A0319B2
:1039D200C20A0319C30A4008BC074108BD3D420898
:1039E200BE3D4308BF3D3F082000AC0021003E0819
:1039F2002000AB0021003D082000AA0021003C0865
:103A02002000A90022003E082000AD0022003F084D
:103A12002000AE00890D893B8909AF00B000BE319C
:103A220038269931200029082100C40020002A08E4
:103A32002100C50020002B082100C60020002C0810
:103A42002100C7000830C736C60CC50CC40C890B50
:103A5200242D22006408210044072200A6006508E4
:103A62002100453D2200A700230031080319BE2D85
:103A7200220054082100BC00220055082100BD008C
:103A8200220056082100BE00220057082100BF0074
:103A9200220068092100C000220069092100C1003A
:103AA20022006A092100C20022006B092100C30022
:103AB200C00A0319C10A0319C20A0319C30A40083A
:103AC200BC074108BD3D4208BE3D4308BF3D3F081B
:103AD2002000AC0021003E082000AB0021003D0880
:103AE2002000AA0021003C082000A9002200400872
:103AF2002100C400220041082100C5000030C51B7E
:103B0200FF30C600C70044092000AD00210045096E
:103B12002000AE00210046092000AF002100470925
:103B22002000B000AD0A0319AE0A0319AF0A031947
:103B3200B00ABE3138269931200029082100C80078
:103B420020002A082100C90020002B082100CA00F9
:103B520020002C082100CB000830CB36CA0CC90C3F
:103B6200C80C890BAE2D22006808210048072200EC
:103B7200A80069082100493D2C2E2200540821008A
:103B8200BC00220055082100BD0022005608210079
:103B9200BE00220057082100BF0022006809210050
:103BA200C000220069092100C10022006A09210027
:103BB200C20022006B092100C300C00A0319C10A16
:103BC2000319C20A0319C30A4008BC074108BD3DD4
:103BD2004208BE3D4308BF3D3F082000AC00210023
:103BE2003E082000AB0021003D082000AA00210071
:103BF2003C082000A900220040082000AD0022005D
:103C020041082000AE00890D893B8909AF00B00050
:103C1200BE3138269931200029082100C400200035
:103C22002A082100C50020002B082100C600200020
:103C32002C082100C7000830C736C60CC50CC40CBE
:103C4200890B1D2E22006808210044072200A800CB
:103C520069082100453D2200A9002300320803190A
:103C6200B72E220058082100BC002200590821006A
:103C7200BD0022005A082100BE0022005B0821007C
:103C8200BF0022006C092100C00022006D09210042
:103C9200C10022006E092100C20022006F0921002A
:103CA200C300C00A0319C10A0319C20A0319C30ACD
:103CB2004008BC074108BD3D4208BE3D4308BF3D28
:103CC2003F082000AC0021003E082000AB0021008C
:103CD2003D082000AA0021003C082000A900220083
:103CE20042082100C400220043082100C500003020
:103CF200C51BFF30C600C70044092000AD002100EB
:103D020045092000AE00210046092000AF00210035
:103D120047092000B000AD0A0319AE0A0319AF0A21
:103D22000319B00ABE313826993120002908210032
:103D3200C80020002A082100C90020002B08210009
:103D4200CA0020002C082100CB000830CB36CA0C58
:103D5200C90CC80C890BA72E22006C082100480749
:103D62002200AA006D082100493D252F2200580893
:103D72002100BC00220059082100BD0022005A087F
:103D82002100BE0022005B082100BF0022006C0956
:103D92002100C00022006D092100C10022006E092D
:103DA2002100C20022006F092100C300C00A0319CA
:103DB200C10A0319C20A0319C30A4008BC07410811
:103DC200BD3D4208BE3D4308BF3D3F082000AC0058
:103DD20021003E082000AB0021003D082000AA007F
:103DE20021003C082000A900220042082000AD006A
:103DF200220043082000AE00890D893B8909AF00EB
:103E0200B000BE3138269931200029082100C400B3
:103E120020002A082100C50020002B082100C6002E
:103E220020002C082100C7000830C736C60CC50C7C
:103E3200C40C890B162F22006C08210044072200B3
:103E4200AA006D082100453D2200AB002008210098
:103E5200BC003C082200DC0021082100BC003C0818
:103E62002200DD000630203E860001308700403F00
:103E72002100BC00413FBD003D0DBD0CBC0C3D0D01
:103E8200BD0CBC0C3C08BE003E082200DE0008301F
:103E9200203E860001308700403F2100BC00413FA8
:103EA200BD003D0DBD0CBC0C3D0DBD0CBC0C3C0859
:103EB200BE003E082200DF000A30203E86000130AC
:103EC2008700403F2100BC00413FBD003D0DBD0CBD
:103ED200BC0C3D0DBD0CBC0C3C08BE003E082200D3
:103EE200E0000130230058052100BC0023005708E0
:103EF20001392100BD000130BD35890B7D2F220023
:103F020026082100BE000230BE35890B852F0C30F9
:103F12003E05BF00220028082100C0000430C03541
:103F2200890B902F30304005C10022002A08210061
:103F3200C2000530C235FF3E031D9B2F4235C039FA
:103F420041043F043D043C04C30043082200E10055
:103F520000302000A900AA005C30AB000130AC00A8
:103F620006302100BC003C082000AD00BF314627CE
:103F72009931C42F21006B080A3A0319FE2F013A26
:103F820003191F29C42F2200370803190800380813
:103F92002100BC003C082200CA0039082100BC00F4
:103FA2003C082200CB003A082100BC003C08220059
:103FB200CC003B082100BC003C082200CD003C089C
:103FC2002100BC003C082200CE003D082100BC00BC
:103FD2003C082200CF0070302000A9000030AA0067
:103FE2004A30AB000130AC0006302100BC003C0876
:103FF2002000AD00BF3146270800A1313F29003023
:104002002000C1000030C0000030BF000030BE0000
:10401200380837043604350403194A28C201C20A93
:10402200B81B1F280130B535B60DB70DB80D890B79
:1040320014280130BD003D08C20711280130BE35E9
:10404200BF0DC00DC10D890B202838083C02031D8D
:10405200342837083B02031D342836083A02031D70
:10406200342835083902031C3F283508B9023608BE
:10407200BA3B3708BB3B3808BC3B3E140130B8366C
:10408200B70CB60CB50C890B40280130C202031DD7
:104092001F284108B8004008B7003F08B6003E0894
:1040A200B500080020004B082100A00020004C08A9
:1040B2002100A10020004D082100A20020004E088E
:1040C2002100A300200047092100A4002000480984
:1040D2002100A500200049092100A60020004A096C
:1040E2002100A700A40A0319A50A0319A60A0319A5
:1040F200A70A2408A0072508A13D2608A23D2708F3
:10410200A33D23082000B800210022082000B700A8
:10411200210021082000B600210020082000B5005F
:1041220043082100A800200044082100A900200023
:1041320045082100AA00200046082100AB0020000B
:1041420047092100AC00200048092100AD002000F1
:1041520049092100AE0020004A092100AF00AC0A43
:104162000319AD0A0319AE0A0319AF0A2C08A807EE
:104172002D08A93D2E08AA3D2F08AB3D2B08200093
:10418200AC0021002A082000AB00210029082000F1
:10419200AA00210028082000A90053082100B0002D
:1041A200200054082100B100200055082100B2006F
:1041B200200056082100B30020004F092100B4005E
:1041C200200050092100B500200051092100B6004D
:1041D200200052092100B700B40A0319B50A0319D5
:1041E200B60A0319B70A3408B0073508B13D3608D4
:1041F200B23D3708B33D33082000B0002100320839
:104202002000AF00210031082000AE00210030085C
:104212002000AD00BE313826A03120002C08BC00A1
:104222002B08BB002A08BA002908B900A0310020D7
:10423200200035084F072100B80020003608503D05
:104242002100B90020003708513D2100BA002000AA
:104252003808523D2100BB003B082000C600210067
:104262003A082000C500210039082000C4002100BE
:1042720038082000C30008009F31BB2F22003808F5
:10428200803E2000A900FF3003180030AA0022005F
:104292003808803E2000AB00FF3003180030AC002D
:1042A200BD317325A131200029082100BC00200066
:1042B2002A082100BD0022003908803E2000A90002
:1042C200FF3003180030AA0022003908803E200087
:1042D200AB00FF3003180030AC00BD317325A131B3
:1042E2002000290821003C07BE0020002A082100E6
:1042F2003D3DBF00230028082100C000C101400845
:104302002000A900210041082000AA00230028085B
:104312002100C200C30142082000AB002100430873
:104322002000AC00BD317325A13120002A082100F4
:104332003F02031DA0292000290821003E02031C80
:10434200A62923003308031DB1297F302100BC00B8
:104352003C082200A0007F302100BC003C086F2BEB
:1043620023002A0803191E2A22003808F03E86007C
:1043720087012130873D01082100BC00BD01BC0935
:10438200BD09BC0A0319BD0A3C08FF3E2000C30058
:10439200003021003D3D2000C400C501C41BC503FF
:1043A2004508C6000030CA000030C9000030C8000D
:1043B2000030C7000030CE000030CD000030CC000D
:1043C200FF30CB004B308400B8308500000821005C
:1043D200BE00BF01C001C10141082000D20021007E
:1043E20040082000D10021003F082000D000210019
:1043F2003E082000CF004A308400B8308500000813
:104402002100C200C301C401C50145082000D60035
:10441200210044082000D500210043082000D400D8
:10442200210042082000D300A0315320A1312000F6
:1044320043082100C6004608842A22003808F03EBC
:10444200860087012130873D01082100BC00BD01A3
:10445200BE01BF013F082000C60021003E08200027
:10446200C50021003D082000C40021003C082000B6
:10447200C3000030CA000030C9000030C80000305C
:10448200C7000030CE000030CD000030CC00FF303D
:10449200CB004B308400B830850000082100C000FA
:1044A200C101C201C30143082000D2002100420819
:1044B2002000D100210041082000D0002100400846
:1044C2002000CF004A308400B83085000008210067
:1044D200C400C501C601C70147082000D60021005B
:1044E20046082000D500210045082000D400210004
:1044F20044082000D300A0315320A13120004308FA
:104502002100C80048082200A00023002B0803193C
:10451200FE2A22003908003E2100BC0001300318A7
:104522000230BD00F030BE002130BF003C083E0723
:1045320086003D083F3D87000108C000C101C00957
:10454200C109C00A0319C10A4008FF3E2000C30086
:1045520000302100413D2000C400C501C41BC50339
:104562004508C6000030CA000030C9000030C8004B
:104572000030C7000030CE000030CD000030CC004B
:10458200FF30CB004E308400B83085000008210097
:10459200C200C301C401C50145082000D2002100A8
:1045A20044082000D100210043082000D00021004F
:1045B20042082000CF004D308400B830850000084A
:1045C2002100C600C701C801C90149082000D60060
:1045D200210048082000D500210047082000D4000F
:1045E200210046082000D300A0315320A131200031
:1045F20043082100CA004A086F2B22003908003EF6
:104602002100BC00013003180230BD00F030BE00B2
:104612002130BF003C083E0786003D083F3D870031
:104622000108C000C101C201C30143082000C60045
:10463200210042082000C500210041082000C400DA
:10464200210040082000C3000030CA000030C90029
:104652000030C8000030C7000030CE000030CD006E
:104662000030CC00FF30CB004E308400B8308500E3
:1046720000082100C400C501C601C7014708200087
:10468200D200210046082000D10021004508200068
:10469200D000210044082000CF004D308400B83003
:1046A200850000082100C800C901CA01CB014B08DE
:1046B2002000D60021004A082000D5002100490828
:1046C2002000D400210048082000D300A03153204C
:1046D200A131200043082100CC004C082200A10097
:1046E2003A08803E2000A900FF3003180030AA00DB
:1046F20022003A08803E2000AB00FF300318003051
:10470200AC00BD317325A131200029082100BC0075
:1047120020002A082100BD0022003B08803E200024
:10472200A900FF3003180030AA0022003B08803E97
:104732002000AB00FF3003180030AC00BD31732500
:10474200A1312000290821003C07BE0020002A08D0
:1047520021003D3DBF00230029082100C000C10106
:1047620040082000A900210041082000AA002300DF
:1047720029082100C200C30142082000AB00210029
:1047820043082000AC00BD317325A13120002A0866
:1047920021003F02031DD12B2000290821003E02E7
:1047A200031CD72B23003408031DE22B7F3021008A
:1047B200BC003C082200A2007F302100BC003C0863
:1047C200B62D23002C0803195A2C22003A08003E69
:1047D2002100BC00023003180330BD00F030BE00DF
:1047E2002130BF003C083E0786003D083F3D870060
:1047F2000108C000C101C009C109C00A0319C10AE8
:104802004008FF3E2000C30000302100413D20004F
:10481200C400C501C41BC5034508C6000030CA0058
:104822000030C9000030C8000030C7000030CE00A0
:104832000030CD000030CC00FF30CB00513084007E
:10484200B830850000082100C200C301C401C501BF
:1048520045082000D200210044082000D100210098
:1048620043082000D000210042082000CF00503031
:104872008400B830850000082100C600C701C801C5
:10488200C90149082000D600210048082000D500AF
:10489200210047082000D400210046082000D30050
:1048A200A0315320A131200043082100CA004A0848
:1048B200CB2C22003A08003E2100BC000230031833
:1048C2000330BD00F030BE002130BF003C083E077F
:1048D20086003D083F3D87000108C000C101C201BA
:1048E200C30143082000C600210042082000C50081
:1048F200210041082000C400210040082000C3001C
:104902000030CA000030C9000030C8000030C700C3
:104912000030CE000030CD000030CC00FF30CB00A4
:1049220051308400B830850000082100C400C50160
:10493200C601C70147082000D20021004608200016
:10494200D100210045082000D000210044082000A9
:10495200CF0050308400B830850000082100C80024
:10496200C901CA01CB014B082000D60021004A0828
:104972002000D500210049082000D4002100480869
:104982002000D300A0315320A13120004308210090
:10499200CC004C082200A20023002D080319452D4B
:1049A20022003B08003E2100BC0003300318043003
:1049B200BD00F030BE002130BF003C083E0786003B
:1049C2003D083F3D87000108C000C101C009C1097F
:1049D200C00A0319C10A4008FF3E2000C30000308C
:1049E2002100413D2000C400C501C41BC503450888
:1049F200C6000030CA000030C9000030C8000030D4
:104A0200C7000030CE000030CD000030CC00FF30B7
:104A1200CB0054308400B830850000082100C20069
:104A2200C301C401C50145082000D2002100440889
:104A32002000D100210043082000D00021004208BC
:104A42002000CF0053308400B830850000082100D8
:104A5200C600C701C801C90149082000D6002100CB
:104A620048082000D500210047082000D40021007A
:104A720046082000D300A0315320A1312000430872
:104A82002100CA004A08B62D22003B08003E210040
:104A9200BC00033003180430BD00F030BE002130EA
:104AA200BF003C083E0786003D083F3D87000108E5
:104AB200C000C101C201C30143082000C600210099
:104AC20042082000C500210041082000C400210046
:104AD20040082000C3000030CA000030C900003086
:104AE200C8000030C7000030CE000030CD000030DA
:104AF200CC00FF30CB0054308400B8308500000871
:104B02002100C400C501C601C70147082000D20028
:104B1200210046082000D100210045082000D000D5
:104B2200210044082000CF0053308400B8308500B3
:104B320000082100C800C901CA01CB014B082000AE
:104B4200D60021004A082000D50021004908200093
:104B5200D400210048082000D300A0315320A13105
:104B6200200043082100CC004C082200A3002300AF
:104B72003508031DDA2D5208031DC12DFF30C62D45
:104B820056308400B830850000082100BC003C0883
:104B92002200A40023005008031DD12DFF30D62D82
:104BA20057308400B830850000082100BC003C0862
:104BB200262F23002E080319302E22003C08210044
:104BC200BC00BD01BC09BD09BC0A0319BD0A3C08F1
:104BD200FF3E2000C300003021003D3D2000C40004
:104BE200C501C41BC5034508C6000030CA00003019
:104BF200C9000030C8000030C7000030CE000030CD
:104C0200CD000030CC00FF30CB0056308400B830ED
:104C1200850000082100BE00BF01C001C10141089A
:104C22002000D200210040082000D10021003F08CE
:104C32002000D00021003E082000CF000030D60026
:104C42000030D5000030D400FF30D300A031532013
:104C5200A131200043082100C20042087F2E220019
:104C62003C082100BC00BD01BE01BF013F0820007D
:104C7200C60021003E082000C50021003D0820009A
:104C8200C40021003C082000C3000030CA000030EC
:104C9200C9000030C8000030C7000030CE0000302C
:104CA200CD000030CC00FF30CB0056308400B8304D
:104CB200850000082100C000C101C201C3014308F0
:104CC2002000D200210042082000D100210041082A
:104CD2002000D000210040082000CF000030D60084
:104CE2000030D5000030D400FF30D300A031532073
:104CF200A131200043082100C40044082200A4007E
:104D020023002F080319D72E22003D082100BC00E2
:104D1200BD01BC09BD09BC0A0319BD0A3C08FF3E1E
:104D22002000C300003021003D3D2000C400C50129
:104D3200C41BC5034508C6000030CA000030C900C4
:104D42000030C8000030C7000030CE000030CD0077
:104D52000030CC00FF30CB0057308400B8308500E3
:104D620000082100BE00BF01C001C10141082000AE
:104D7200D200210040082000D10021003F0820007D
:104D8200D00021003E082000CF000030D6000030C5
:104D9200D5000030D400FF30D300A0315320A13120
:104DA200200043082100C2004208262F22003D08AD
:104DB2002100BC00BD01BE01BF013F082000C600AA
:104DC20021003E082000C50021003D082000C4004B
:104DD20021003C082000C3000030CA000030C90096
:104DE2000030C8000030C7000030CE000030CD00D7
:104DF2000030CC00FF30CB0057308400B830850043
:104E020000082100C000C101C201C3014308200003
:104E1200D200210042082000D100210041082000D8
:104E2200D000210040082000CF000030D600003022
:104E3200D5000030D400FF30D300A0315320A1317F
:104E4200200043082100C40044082200A5003608BF
:104E52000319FE2F20082100BC003C082200DC00C0
:104E620022082100BC003C082200DD0021082100AC
:104E7200BC003C082200DE0023082100BC003C08E4
:104E82002200DF0024082100BC003C082200E000D0
:104E920025082100BC003C082200E1002300500844
:104EA20001392100BC000130BC35890B552F23008C
:104EB200540801392100BD000230BD35890B5E2F37
:104EC2002300560801392100BE000330BE35890B8C
:104ED200672F2300550801392100BF000430BF3578
:104EE200890B702F2300520801392100C0000530C0
:104EF200C035890B792F23004D0801392100C100EB
:104F02000630C135890B822F23004E08013921005A
:104F1200C2000630C235FF3E031D8B2F42354104CD
:104F220040043F043E043D043C040138C3004308EE
:104F32002200E200013023004C052100BC002300C6
:104F42004F0801392100BD000130BD35890BA62F64
:104F52002300510801392100BE000230BE35890B01
:104F6200AF2F23004A0801392100BF000330BF35AB
:104F7200890BB82F2300480801392100C0000430F2
:104F8200C035890BC12F23004B0801392100C10014
:104F92000530C135890BCA2F230049080139210088
:104FA200C2000630C235890BD32F230053080139C2
:104FB2002100C3000630C335FF3E031DDC2F4335FD
:104FC2004204410440043F043E043D043C04C40046
:104FD20044082200E30000302000A900AA005C304F
:104FE200AB000130AC0008302100BC003C082000BE
:104FF200AD00BF3146279F31C42FB431082CF200D7
:1050020008287208F10071082100D8000800700811
:10501200333A031902280D2808002000BC00CF28CB
:10502200BC312524A831003A03195A28BD310E2576
:10503200A83120003208B9003308BA000630BB009C
:105042003A0DBA0CB90CBB0B212839082200BE005C
:1050520020003A082200BF00BD312725A8312000D8
:105062003208B9003308BA000630BB003A0DBA0C58
:10507200B90CBB0B372839082200C00020003A08BF
:105082002200C100BD314025A83120003208B900FC
:105092003308BA000630BB003A0DBA0CB90CBB0B90
:1050A2004D2839082200C20020003A082200C3001D
:1050B20063282200BE01BF01C001C101FF30C2004E
:1050C2000030C3001630BD315925A831200029080F
:1050D200B9002A08BA00BA36B90CBA36B90C39087E
:1050E200BB003B082200B8001530BD315925A8315C
:1050F20020002908B9002A08BA00BA36B90CBA3613
:10510200B90C3908BB003B082200B9001130BD318F
:105112005925A83120002908B9002A08BA00BA3650
:10512200B90CBA36B90C3908BB003B082200BA00E8
:105132001230BD315925A83120002908B9002A08AA
:10514200BA00BA36B90CBA36B90C3908BB003B08FA
:105152002200BB001430BD315925A8312000290896
:10516200B9002A08BA00BA36B90CBA36B90C3908ED
:10517200BB003B082200BC001330BD315925200082
:105182002908B9002A08BA00BA36B90CBA36B90CDD
:105192003908BB003B082200BD00080020003C0883
:1051A2000A3A03196328013A03191128D82808007A
:1051B20022003A08803E2000A900FF300318003088
:1051C200AA0022003A08803E2000AB00FF300318FC
:1051D2000030AC00BD317325A83120002908B80089
:1051E2002A08B90022003B08803E2000A900FF30B7
:1051F20003180030AA0022003B08803E2000AB00CA
:10520200FF3003180030AC00BD317325A8312000F7
:1052120029083807BA002A08393DBB0023002908AB
:105222002000BC00BD013C08A9003D08AA002300E3
:1052320029082000BE00BF013E08AB003F08AC00B9
:10524200BD317325A83120002A083B02031D2B29FA
:1052520029083A02031C312923003408031D372987
:105262002000C401C501C601C701792922003A08FC
:10527200003E2000B800023003180330B900F030BD
:10528200BA002130BB0038083A07860039083B3D96
:1052920087000108BC00BD01BC09BD09BC0A031995
:1052A200BD0A3C08803EC40000303D3DC5002200DE
:1052B2003B08003E2000B800033003180430B90058
:1052C200F030BA002130BB0038083A0786003908AE
:1052D2003B3D87000108BC00BD01BC09BD09BC0AF9
:1052E2000319BD0A3C08803EC60000303D3DC700A0
:1052F20044084504031D81294608470403198C29E3
:1053020000302300EC000030EB000030EA000030F7
:10531200E9002000DF015F08031D542A0030AF00BE
:105322000130B0005E08B800B9013808A900390898
:10533200AA004508AC004408AB00BD317325A83172
:1053420020002A08B2002908B100B031C220A831D9
:1053520020003008C1002F08C0000030AF0001302B
:10536200B0005E08B800B9013808A9003908AA00DF
:105372004708AC004608AB00BD317325A8312000B8
:105382002A08B2002908B100B031C220A831200099
:105392003008C3002F08C2004008B8004108B90015
:1053A2000030B91BFF30BA00BB0038082100CD071E
:1053B200200039082100CE3D20003A082100CF3DCF
:1053C20020003B082100D03D20004208B8004308DD
:1053D200B9000030B91BFF30BA00BB003808210009
:1053E200D107200039082100D23D20003A082100CF
:1053F200D33D20003B082100D43DD01B0D2A50088C
:10540200031D152A4F08031D152A4E08031D152AD0
:1054120046304D020318152A0030D0000030CF006C
:105422000030CE0046302A2AD01B2B2A5008031DFA
:10543200232A4F08031D232AB3304D021F304E3B4F
:10544200031C2B2A0030D0000030CF001F30CE00CA
:10545200B230CD00D41F352A0030D4000030D30042
:105462000030D20000304A2AD41B4B2A5408031DB4
:10547200432A5308031D432AF93051021F30523B7D
:10548200031C4B2A0030D4000030D3001F30D2005E
:10549200F830D10001302300E9070030EA3D003046
:1054A200EB3D0030EC3D23006C08031D622A6B08C3
:1054B200031D622A6A08031D622A97306902031CCF
:1054C20008000030EC000030EB000030EA00003051
:1054D200E9002000DF01DF0A08002000AA00262DD3
:1054E20000300C1A01302300B700003020008C1A63
:1054F20001302300B80000302000101801302300D2
:10550200B90000302000901801302300BA000030AA
:1055120020000F1B01302300BB00003020008F1A37
:1055220001302300BC00003020000F1A013023009C
:10553200BD00003020008E1B01302300BE00003071
:1055420020000F1801302300BF00003020008F1808
:1055520001302300C000003020008F1901302300E9
:10556200C100003020000F1901302300C2000030BA
:105572002000101901302300C300003020000C1B52
:1055820001302300C400003020008C1B01302300B6
:10559200C5003708031DD22A01302000A9002908BE
:1055A200E00723003808031DDC2A01302000A9008F
:1055B20029082100E80723003908031DE62A0130E3
:1055C2002000A90029082100E70723003A08031D4B
:1055D200F02A01302000A90029082100E607230053
:1055E2003B08031DFA2A01302000A90029082100E6
:1055F200E50723003C08031D042B01302000A9000D
:1056020029082100E40723003D08031D0E2B013069
:105612002000A90029082100E30723003E08031DFA
:10562200182B01302000A90029082100E2072300DD
:105632003F08031D222B01302000A9002908210068
:10564200DF0723004008031D2C2B01302000A90096
:1056520029082100DE0723004108031D362B0130F3
:105662002000A90029082100E10723004208031DA8
:10567200402B01302000A90029082100E007230067
:105682004308031D4A2B01302000A90029082100EC
:10569200DD0723004408031D542B01302000A9001C
:1056A20029082100DC0723004508031D5E2B013079
:1056B2002000A90029082100DB072400200823007C
:1056C20037060319692B2000E0012300C801C80A2C
:1056D20024002108230038060319742B2100E80155
:1056E2002300C901C90A240022082300390603192C
:1056F2007F2B2100E7012300CA01CA0A24002308E4
:1057020023003A0603198A2B2100E6012300CB016C
:10571200CB0A2400240823003B060319952B210001
:10572200E5012300CC01CC0A2400250823003C0615
:105732000319A02B2100E4012300CD01CD0A24008E
:10574200260823003D060319AB2B2100E3012300A9
:10575200CE01CE0A2400270823003E060319B62BE9
:105762002100E2012300CF01CF0A240028082300F0
:105772003F060319C12B2100DF012300D001D00A0B
:1057820024002908230040060319CC2B2100DE0146
:105792002300D101D10A24002A082300410603195B
:1057A200D72B2100E1012300D201D20A24002B08C9
:1057B200230042060319E22B2100E0012300D3015A
:1057C200D30A24002C08230043060319ED2B2100E1
:1057D200DD012300D401D40A24002D08230044064D
:1057E2000319F82B2100DC012300D501D50A24007E
:1057F2002E08230045060319032C2100DB01230098
:10580200D601D60A37082000A90029082400A000E2
:10581200230038082000A90029082400A100230041
:1058220039082000A90029082400A20023003A0810
:105832002000A90029082400A30023003B0820001F
:10584200A90029082400A40023003C082000A90084
:1058520029082400A50023003D082000A9002908EA
:105862002400A60023003E082000A90029082400E5
:10587200A70023003F082000A90029082400A8004F
:10588200230040082000A90029082400A9002300C1
:1058920041082000A90029082400AA002300420888
:1058A2002000A90029082400AB002300430820009F
:1058B200A90029082400AC00230044082000A90004
:1058C20029082400AD00230045082000A90029086A
:1058D2002400AE00053020006002031C722C23005D
:1058E200C801053021006802031C792C2300C9017C
:1058F200053021006702031C802C2300CA010530F9
:1059020021006602031C872C2300CB0105302100F5
:105912006502031C8E2C2300CC0105302100640299
:10592200031C952C2300CD01053021006302031CCA
:105932009C2C2300CE01053021006202031CA32C03
:105942002300CF01053021005F02031CAA2C230093
:10595200D001053021005E02031CB12C2300D101CD
:10596200053021006102031CB82C2300D20105304E
:1059720021006002031CBF2C2300D301053021004B
:105982005D02031CC62C2300D401053021005C02F9
:10599200031CCD2C2300D501053021005B02031C22
:1059A20008002300D6010800003020008F190130C2
:1059B2002300C600003020000F1901302300C70069
:1059C2004608031DEA2C01302000A9002908210005
:1059D200DA0723004708031DF42C01302000A90038
:1059E20029082100D90724002F082300460603199D
:1059F200FF2C2100DA012300D701D70A2400300846
:105A02002300470603190A2D2100D9012300D801DA
:105A1200D80A46082000A90029082400AF00230064
:105A220047082000A90029082400B0000530210001
:105A32005A02031C1E2D2300D701053021005902F2
:105A4200031C08002300D801080020002A080A3A93
:105A52000319712A013A0319D52C2F2D08002000B1
:105A6200D701D80101305802003003195702031838
:105A72000800230020082100BC00BD013D082000D1
:105A82005802031D482D21003C082000570203182C
:105A92005B2DF0302100BC002130BD0020005708F2
:105AA20021003C0786002000580821003D3D870068
:105AB2008101DE2D230022082100BC00BD0120004F
:105AC200580821003D02031D6A2D200057082100BD
:105AD2003C020318802DF030BC002130BD002000B4
:105AE200570821003C07BE002000580821003D3D18
:105AF200BF003E0886003F088700FF30DD2D2000F2
:105B02005708C3005808C400C501C6012300200875
:105B12002100BC00BD01BE01BF013F082000CA0038
:105B220021003E082000C90021003D082000C800D5
:105B320021003C082000C700230022082100C000E9
:105B4200C101C201C30143082000CE002100420866
:105B52002000CD00210041082000CC002100400897
:105B62002000CB000030D2000030D1000030D00045
:105B72000030CF000030D6000030D5000030D40015
:105B8200FF30D300A0315320AD3120004308210063
:105B9200C400F030C5002130C600200057082100A3
:105BA2004507C700200058082100463DC8004708A5
:105BB200860048088700440881002300210821004C
:105BC200BC00BD013D0820005802031DEC2D210040
:105BD2003C08200057020318032E5708003E2100FC
:105BE200BC0001302000583D2100BD00F030BE0055
:105BF2002130BF003C083E0786003D083F3D87003C
:105C02008101922E230023082100BC00BD01200047
:105C1200580821003D02031D122E200057082100C2
:105C22003C0203182E2E20005708003E2100BC0023
:105C320001302000583D2100BD00F030BE0021306F
:105C4200BF003C083E07C0003D083F3DC100400880
:105C5200860041088700FF30912E20005708C300BC
:105C62005808C400C501C601230021082100BC0058
:105C7200BD01BE01BF013F082000CA0021003E084D
:105C82002000C90021003D082000C80021003C0876
:105C92002000C700230023082100C000C101C20167
:105CA200C30143082000CE00210042082000CD009D
:105CB200210041082000CC00210040082000CB0038
:105CC2000030D2000030D1000030D0000030CF00D0
:105CD2000030D6000030D5000030D400FF30D300B1
:105CE200A0315320AD31200043082100C400200020
:105CF2005708003E2100C50001302000583D210018
:105D0200C600F030C7002130C80045084707C90067
:105D12004608483DCA00490886004A0887004408E8
:105D22008100230024082100BC00BD013D082000A1
:105D32005802031DA02E21003C0820005702031820
:105D4200B72E5708003E2100BC0002302000583D0B
:105D52002100BD00F030BE002130BF003C083E07EC
:105D620086003D083F3D87008101462F230026081B
:105D72002100BC00BD012000580821003D02031D86
:105D8200C62E2000570821003C020318E22E2000F4
:105D92005708003E2100BC0002302000583D21007F
:105DA200BD00F030BE002130BF003C083E07C000FD
:105DB2003D083F3DC1004008860041088700FF3092
:105DC200452F20005708C3005808C400C501C6016A
:105DD200230024082100BC00BD01BE01BF013F0811
:105DE2002000CA0021003E082000C90021003D0811
:105DF2002000C80021003C082000C700230026081C
:105E02002100C000C101C201C30143082000CE002D
:105E1200210042082000CD00210041082000CC00D2
:105E2200210040082000CB000030D2000030D10019
:105E32000030D0000030CF000030D6000030D50056
:105E42000030D400FF30D300A0315320AD31200008
:105E520043082100C40020005708003E2100C5006D
:105E620002302000583D2100C600F030C70021302A
:105E7200C80045084707C9004608483DCA00490806
:105E820086004A0887004408810023002508210073
:105E9200BC00BD013D0820005802031D542F210003
:105EA2003C082000570203186B2F5708003E2100C0
:105EB200BC0003302000583D2100BD00F030BE0080
:105EC2002130BF003C083E0786003D083F3D870069
:105ED2008101FA2F230027082100BC00BD01200008
:105EE200580821003D02031D7A2F20005708210087
:105EF2003C020318962F20005708003E2100BC00E8
:105F020003302000583D2100BD00F030BE0021309A
:105F1200BF003C083E07C0003D083F3DC1004008AD
:105F2200860041088700FF30F92F20005708C30080
:105F32005808C400C501C601230025082100BC0081
:105F4200BD01BE01BF013F082000CA0021003E087A
:105F52002000C90021003D082000C80021003C08A3
:105F62002000C700230027082100C000C101C20190
:105F7200C30143082000CE00210042082000CD00CA
:105F8200210041082000CC00210040082000CB0065
:105F92000030D2000030D1000030D0000030CF00FD
:105FA2000030D6000030D5000030D400FF30D300DE
:105FB200A0315320AD31200043082100C40020004D
:105FC2005708003E2100C50003302000583D210043
:105FD200C600F030C7002130C80045084707C90095
:105FE2004608483DCA00490886004A088700440816
:105FF200810001302000D7070030D83D332D5530C5
:106002003D008F00AA308F000F10080000302100E1
:10601200D0000030CF001030CE006830CD0000300C
:10602200D4000030D3000930D200B030D10058087B
:10603200031D1D28D801D80A00302300EC000030CF
:10604200EB000030EA000030E9002000DF01DF0A47
:106052002100D701D70A08002100A000A1010A30BF
:10606200210203185128210820072000DB005B08C9
:10607200860087010108DC0021002103FF3A093E66
:106082002C3E86000130870020005C088100013030
:10609200DB005B082100A1070A302102031C34281F
:1060A200A101063021020318742821080A3E2007A4
:1060B2002000DB005B08860087010108DC0021006C
:1060C2002103FF3A053E443E86000130870020004E
:1060D2005C0881000130DB005B082100A10706306B
:1060E2002102031C56289231A2220800BF31BD278B
:1060F200B031BF318027B031FF302000DD005D08B4
:106102002100EC002000E60120000C1C91280E1C4E
:106112008C280A308D280B30DD005D08E6009228BD
:10612200E601660821006C060319A2282000660811
:10613200B2319322B03120006608DD005D082100F3
:10614200EC00BC311924B031003A03198528210032
:106152006C08AA316E22B03121006C08A8310E20E1
:10616200B031A1313D21B031B5315C25B031B13111
:106172006E21B031003A0319852887310227B031E8
:1061820085282000B501B01FCD28AF09B009AF0A9C
:106192000319B00AB501B50AB21FD828B109B2096C
:1061A200B10A0319B20A0130B3003308B506B601C9
:1061B200B7012F08300403190729B401B40AB01B30
:1061C200EC280130AF35B00D890BE3280130B30064
:1061D2003308B407E0280130B635B70D890BED2836
:1061E20030083202031DF7282F083102031CFE2853
:1061F2002F08B1023008B23B36140130B036AF0C72
:10620200890BFF280130B402031DEC28350803195D
:106212000F29B609B709B60A0319B70A3708B00039
:106222003608AF00080023009A120A309A00103094
:106232009C0020004308CA004408CB004508CC005B
:106242004608CD000230CA35CB0DCC0DCD0D890BE1
:1062520024294D08B8004C08B7004B08B6004A087C
:10626200B5000030BC007A30BB001230BA000030FA
:10627200B900A0310020B13120003508FF3E2300D3
:106282009700200047080139CA00CA0E23001A08E5
:1062920020004A06EF394A0623009A0020004808E7
:1062A2000139CA00CA0ECA0DCA0D230019082000FE
:1062B2004A06BF394A0623009900200049080139DD
:1062C200CA00CA0CCA0C2300190820004A067F39EA
:1062D2004A06230099009A1608002100B401B02949
:1062E200E901B401B40AC729E9012200B701B70ADA
:1062F200C7292100E9012200B701C7292100E901CC
:10630200BD31AC25B131C7292100E901BD31CD250F
:10631200B131C7292100E901BE31D626B131C729E1
:106322002100E90140302000A9000030AA00A43079
:106332002100A20022082000AB0010302100A3009F
:1063420023082000AC0091315F21B131A430B0317B
:106352002D20B1312100A2002208FD00C7296908C1
:106362001A3A03197129013A03197F29073A0319C5
:106372008529013A03198B29033A03197529013A30
:1063820003199129313A03197A29C72921003408BE
:1063920008002000D000BC313224B131003A031D84
:1063A200E22900302000C6000F30C5004230C40090
:1063B2004030C300C701C801C80AC901B131142164
:1063C200B13182302000CF00DD30890BE629CF0BBE
:1063D200E62900320F3098310120B131693A0319B0
:1063E200F529BC312D24080003302000CF004F08CE
:1063F200AC000D30BC317024B1312000500A031DB5
:10640200042AAC010B2A2000500803398038CF003F
:106412004F08AC001030BC317024B13120004E0A5C
:10642200031D152AAC011D2A20004E080739090751
:106432008038CF004F08AC001130BC317024B1312C
:1064420004302000CF004F08AC001230BC31702461
:106452002000E501E50A080020009712F030310023
:106462008D05FD01FA302000A9000030AA002100AC
:106472004C082000AC0021004B082000AB00063085
:10648200D9005908AD00BF314627B2318230200011
:10649200A9000030AA00CC30D9005908AB00BC31A9
:1064A200F624B231762A20302000A9000030AA005A
:1064B2004A30AB00B830AC002030D9005908AD00EA
:1064C200BF314627B2317F2A20302000A900003098
:1064D200AA002A30AB00B830AC002030D9005908ED
:1064E200AD00BF314627B2317F2A21006B080A3A3C
:1064F2000319542A013A0319652A7F2AAD3130253E
:10650200B231B3317F2331000D08F03902388D00EA
:10651200200097162100E9012200B7012100EA01BB
:10652200EA0A08002000DB005B08DA005A082100B2
:10653200EB00F32ABD31AC25B2312000A901523063
:10654200BD318F25B231BC312D24B23170302100E2
:10655200CB00B830CC00B2312D22B231BC3137245D
:106562007E303E00CE000800BD31AC25B2312300A2
:1065720036080319C22A58302000DA005A08A90046
:10658200C42A2000A9015230BD318F25B231BC315D
:106592002524B231003A031DD72AFF302000DA0049
:1065A2005A08CE000030B131CA21B2316A3021001E
:1065B200CB00B830CC00B2312D22B231B03107203D
:1065C2007E303E00CE000800BC311C24B231BC310A
:1065D2002D24B231BC312824B231BC3137243E00E3
:1065E200CE01080021006B080A3A03199B2A013ADE
:1065F2000319B52AE52A08002000B301AC1F0E2BAF
:10660200A909AA09AB09AC09A90A0319AA0A03191B
:10661200AB0A0319AC0AB301B30AB01F1F2BAD09B1
:10662200AE09AF09B009AD0A0319AE0A0319AF0AE0
:106632000319B00A0130B1003108B3060030B700C7
:106642000030B6000030B5000030B4002C082B0436
:106652002A0429040319682BB201B20AAC1B3D2B90
:106662000130A935AA0DAB0DAC0D890B322B0130CF
:10667200B1003108B2072F2B0130B435B50DB60D7C
:10668200B70D890B3E2B2C083002031D522B2B0811
:106692002F02031D522B2A082E02031D522B2908FA
:1066A2002D02031C5D2B2908AD022A08AE3B2B08E4
:1066B200AF3B2C08B03B34140130AC36AB0CAA0C07
:1066C200A90C890B5E2B0130B202031D3D2B33084E
:1066D2000319762BB409B509B609B709B40A031927
:1066E200B50A0319B60A0319B70A3708AC00360807
:1066F200AB003508AA003408A9000800FE2B2200CE
:1067020036080319B32B7F302000BC003C08BD00C3
:106712007F30BC003C08BE007F30BC003C08BF009C
:106722007F30BC003C08C0007F30BC003C08C10088
:106732007F30BC003C08C200FF30BC003C08C300F4
:10674200FF30BC003C08C4000030A900AA003D3064
:10675200AB000030AC000830BC003C08AD00BF31DB
:10676200462708005F302000BC003C08BD00DF3037
:10677200BC003C08BE008F30BC003C08BF00C0011A
:10678200FF30BC003C08C100FF30BC003C08C20026
:106792000030A900AA003D30AB000030AC0006304A
:1067A200BC003C08AD00BF31462708007F30200006
:1067B200BC003C08BD007F30BC003C08BE007F30FE
:1067C200BC003C08BF007F30BC003C08C000B430B5
:1067D200BC003C08C1003F30BC003C08C200003095
:1067E200A900AA003D30AB000030AC000630BC006E
:1067F2003C08AD00BF314627080021006B080A3A69
:106802000319802B013A0319D72B072C0800220009
:1068120020082100BC000230BC36890B0D2C3C083C
:10682200BD003D082200A00021082100BC0002306A
:10683200BC36890B192C3C08BD003D082200A10082
:1068420022082100BC000330BC36890B252C3C08F1
:10685200BD003D082200A20023082100BC00033035
:10686200BC36890B312C3C08BD003D082200A30038
:1068720024082100BC000330BC36890B3D2C3C08A7
:10688200BD003D082200A40025082100BC00033001
:10689200BC36890B492C3C08BD003D082200A500EE
:1068A2003F3020052100BC00220022082100BD004B
:1068B2000230BD35FF3E031D5A2C3D35C0393C0424
:1068C200BE003E082200DC003F3021052100BC0052
:1068D200220022082100BD000430BD35FF3E031D09
