:0400000080310F2814
:100008007E14803120007F08F000042F7008200043
:10001800FF007E10090082319A2A81313529823108
:100028008A2A82318A2A82318A2A82318A2A82312C
:100038008A2A82318A2A82318A2A82318A2A82311C
:100048008A2A82318A2A82318A2A82318A2A82310C
:100058008A2A82318A2A82318A2A82318A2A8231FC
:100068008A2A82318A2A82318A2A82318A2A8231EC
:100078008A2A82318A2A82318A2A82318A2A8231DC
:100088008A2A82318A2A82318A2A82318A2A8231CC
:100098008A2A82318A2A82318A2A82318A2A8231BC
:1000A8008A2A82318A2A82318A2A82318A2A8231AC
:1000B8008A2A82318A2A82318A2A82318A2A82319C
:1000C8008A2A82318A2A82318A2A82318A2A82318C
:1000D8008A2A82318A2A82318A2A82318A2A82317C
:1000E8008A2A82318A2A82318A2A82318A2A82316C
:1000F8008A2A82318A2A82318A2A82318A2A82315C
:100108008A2A82318A2A82318A2A82318A2A82314B
:100118008A2A82318A2A82318A2A82318A2A82313B
:100128008A2A82318A2A82318A2A82318A2A82312B
:100138008A2A82318A2A82318A2A82318A2A82311B
:100148008A2A82318A2A82318A2A82318A2A82310B
:100158008A2A82318A2A82318A2A81313B2981314D
:100168002B2982318A2A82318A2A82318A2A81314C
:10017800832982318A2A82318A2A82318A2A8231E3
:100188008A2A82318A2A82318A2A82318A2A8231CB
:100198008A2A82318A2A82318A2A82318A2A8231BB
:1001A8008A2A82318A2A82318A2A82318A2A8231AB
:1001B8008A2A82318A2A82318A2A82318A2A82319B
:1001C8008A2A82318A2A82318A2A82318A2A82318B
:1001D8008A2A82318A2A82318A2A82318A2A81317C
:1001E8002F2982318A2A82318A2A82318A2A8131C8
:0601F800832982317C2AFC
:100200008B13F03031008D052000A4015230853170
:10021000A2258131200097162E000F1C8E2A8131D5
:1002200023000F1C192981310C082000B000300870
:10023000B4004030230011052000B00023000F0857
:100240003C3920003004B100B2013108A20032086C
:10025000A3008231722AA901A90A82318A2A2908B7
:100260000319422981318131532934088231AF2267
:10027000813182318A2A2000340883315D23813123
:1002800082318A2A20002A08913E031C8A2A813161
:1002900084005130040203188A2A80310435113E4B
:1002A000820082318A2A3408B0003008AA00A901ED
:1002B00082318A2A84313524813182318A2ABB30C5
:1002C00081317F2920003308DF3E84008530031808
:1002D000013E8500000823008C0001302000B000A2
:1002E0003008B30706303302031C8A2A8131B30178
:1002F00082318A2A23008C0182318A2AFF3023002E
:100300008C0082318A2A20002A08E03E031C7E29C4
:10031000840001308A009030040703188A0A8200A2
:100320007A297E297E297E297E297E297E297E2999
:100330007E297E297E297E297E297E297E297E2985
:100340007A297E297E297E297E297E297E297E2979
:100350007E297E297E297E297E297E297E297E2965
:100360007E297E297E297E297E297E297E297E2955
:100370007E297E297E297E297E297E297E297E2945
:100380007E297E297E297E297E297E297E297E2935
:100390007E297E297E297E297E297E297E297E2925
:1003A0007E297E297E297E297E297E297E297E2915
:1003B0007E297E297E297E297E297E297E297E2905
:1003C0007E297E297E297E297E297E297E297E29F5
:1003D0007E297E297E297E297E297E297E297E29E5
:1003E0007E297E295F297E297E297E297E297E29F4
:1003F0007E297E297E297E297E297E297E297E29C5
:100400007E297E297E297E297E297E297E297E29B4
:100410007E297E297E297E297E297E297E297E29A4
:100420007E297E297E297E297E297E297E297E2994
:100430007E297E297E297E297E297E297E297E2984
:100440007E297E297E297E297E297E297E297E2974
:100450007E297E297E297E297E297E297E295A2988
:100460007E297E297E297E297E297E297E297E2954
:100470007E297E297E297E297E297E297E297E2944
:100480007E297E297E297E297E297E297E297E2934
:100490007E297E297E297E297E297E297E297E2924
:1004A0007E297E297E297E297E297E297E297E2914
:1004B0007E297E297E297E297E297E297E297E2904
:1004C0007E297E297E297E297E297E297E297E29F4
:1004D0007E297E2962297E297E297E297E297E2900
:1004E00082318A2A230884000130040203188A2AF0
:1004F00080310435FD3E82002208F83E031C8A2A22
:10050000813184002530040203188A2A80310435A1
:10051000B33E82002E000F102300101685312025D7
:1005200081312000240803190C298531C925813126
:1005300081310C29FB01FC01203084000030850052
:100540000B308531E5258231A030840000308500F4
:1005500040308531E5257E1020008531B12DFA002F
:100560007C08031D4A2B7A082000AB002B08FC00F6
:10057000CA2AFB012000A701A601A5010130AB009A
:100580002B08FC070800FC012000A401A40A0800B5
:10059000FC0108007C08113A0319B92A303A031902
:1005A000B92A0B3A0319C32A1B3A0319B92AC82AD4
:1005B00008007A082000AB002B08A5070230F100E4
:1005C0000030F2007A08AB00AC012B08F3002C08D5
:1005D000F40084319A24823171082000AD002D0886
:1005E000A8000130AB002B08FC0734307C06031D4B
:1005F000080007302102003003192002031C080004
:100600002108F2002008F100A030AB002B08F30015
:100610002808AC00AD012C08F4002D08F500853148
:100620005425080020002608031D202B7A08AB0063
:10063000AC012B08A0002C08A100A601A60A080006
:100640007A08AB00AC012B08AC00AB01FF302005F1
:10065000AE0000302105AF002B082E04A0002C08AE
:100660002F04A1002008AB002B08A5072108AB0030
:100670002B08A5072108AC002008AB00AC36AB0C5A
:100680002B08A0002C08A100A6010130AB002B080C
:10069000FC0708007C08123A0319122B303A0319A0
:1006A000122B013A0319D92A113A0319122B013AD4
:1006B0000319D92A5C2B08000800FA00C32B073065
:1006C00020002102003003192002031C702B21306E
:1006D0007A06031D702B0130F1007108FC07080039
:1006E000A001A101A801FB01A501FC010800200057
:1006F0002708031D8D2B7A08F100F2017B35A03EFF
:10070000860087017108C03F7208C13F7A08F10076
:100710007108A507A701A70AB82B7A08F100F20112
:100720007108F200F1017B35A03E86008701403F51
:10073000F400413FF500FF307405F6000030750508
:10074000F70071087604F80072087704F9007B3529
:10075000A03E860087017808C03F7908C13F7A082B
:10076000F1007108A507A7010130F1007108FB072E
:1007700028087B02031C0800A509A50A0130F10026
:100780007108FC0708007C08243A0319772B023A09
:1007900003195F2BCB2B08001F307105F5000030CB
:1007A0007205F60074087507F70076080318760AD4
:1007B000F80000307802213003197702031CE82B7F
:1007C00071081F39FF3A013E203EF5007508F4001C
:1007D00030001E131E159E1672089B00F901740846
:1007E00079020318322C7908710730009A007408D6
:1007F000FF3EF500FF3003180030F6007608803A1F
:10080000803C031D052C750879020318142C7935DA
:100810007307F500750886008701403FF600413FE9
:10082000F70077083000212C30009E1279357307CD
:10083000F500750886008701403FF600413FF7004C
:1008400077089D0079357307F500750886008701E4
:1008500001089C008531BF2583310130F500750802
:10086000F907EF2B30001E1108008E2C2000250800
:1008700023008C000130F1007108FC070800200003
:10088000250823008C002000A001A101A801FB0184
:10089000A501FC01080020002708031D622C7B3500
:1008A000A03E86008701010823008C007B35A03E16
:1008B000860087010108F10071082000A507A70143
:1008C000A70A7F2C7B35A03E86008701403FF100C0
:1008D000413FF200720823008C007B35A03E860069
:1008E0008701403FF100413FF2007208F3007308B6
:1008F0002000A507A7010130F1007108FB072808B7
:100900007B02031C0800A509A50A0130F10071084B
:10091000FC070800FF3023008C0008007C08253A03
:100920000319362C113A03194B2C013A03193F2CA9
:100930008A2C0800F701F21FA42CF109F209F10A30
:100940000319F20AF701F70AF41FAF2CF309F409AF
:10095000F30A0319F40A0130F5007508F706F801E7
:10096000F901710872040319DE2CF601F60AF21B74
:10097000C32C0130F135F20D890BBA2C0130F50092
:100980007508F607B72C0130F835F90D890BC42C22
:1009900072087402031DCE2C71087302031CD52C3F
:1009A0007108F3027208F43B78140130F236F10C4E
:1009B000890BD62C0130F602031DC32C77080319CE
:1009C000E62CF809F909F80A0319F90A7908F2007E
:1009D0007808F10008008B0131000D08F039023869
:1009E0008D008531D12584310B303D00C600153096
:1009F0003E009B000C303D00C50014303E009C00C2
:100A00008531D825F0303E00B900C4018030CF00D8
:100A10007F30DA000730E500B801C3017E30CE0038
:100A2000D901E401FF3020009100D8309200FF305E
:100A30009300FF309400FF309500971217150800BF
:100A40004B2D073020002102003003192002031C27
:100A50002F2D2108F2002008F10085318425200087
:100A6000A001A101FC01080020002108F2002008DB
:100A7000F100A030AB002B08F3002808AC002C08D4
:100A8000F4008331CC232000A001A101A801FB01C7
:100A9000A501FC0108007C08133A0319212D353A01
:100AA0000319342D532D0800740875040319080028
:100AB00030001E13F8017808F600F7017508770278
:100AC000031D642D74087602031808007808710766
:100AD000F60072080318720AF70077089B0078087E
:100AE00071079A001E14000078357307F600760827
:100AF0008600870130001C08C03F1D08C13F01303F
:100B0000F6007608F8075B2D1F307105F300003002
:100B10007205F400F309F409F30A0319F40A7108E1
:100B20007307F1007208743DF20030001E13720862
:100B30009B0071089A001E161E158531BF253000D6
:100B40001E110800F1002300901256309000013071
:100B50009100920171358D00FF308E008F0190164B
:100B600008008431EB2485312000101C9018BB2D27
:100B70008131002185318531C92580310F288B13C2
:100B8000553030009F00AA309F009E1400000000E6
:100B90000800200097128531EB252000A401002FCA
:100BA000080055303D008F00AA308F000F1008005C
:100BB00055303D008F00AA308F000F14080000341C
:100BC0000034A43420340134013464008001013144
:0C0BD000890BE62D003423009012080071
:020000040001F9
:0A000E008C3FFF379F07FF2FFF3FD5
:00000001FF
