:0400000080310F2814
:100008007E14803120007F08F000042F7008200043
:10001800FF007E10090082319A2A81313529823108
:100028008A2A82318A2A82318A2A82318A2A82312C
:100038008A2A82318A2A82318A2A82318A2A82311C
:100048008A2A82318A2A82318A2A82318A2A82310C
:100058008A2A82318A2A82318A2A82318A2A8231FC
:100068008A2A82318A2A82318A2A82318A2A8231EC
:100078008A2A82318A2A82318A2A82318A2A8231DC
:100088008A2A82318A2A82318A2A82318A2A8231CC
:100098008A2A82318A2A82318A2A82318A2A8231BC
:1000A8008A2A82318A2A82318A2A82318A2A8231AC
:1000B8008A2A82318A2A82318A2A82318A2A82319C
:1000C8008A2A82318A2A82318A2A82318A2A82318C
:1000D8008A2A82318A2A82318A2A82318A2A82317C
:1000E8008A2A82318A2A82318A2A82318A2A82316C
:1000F8008A2A82318A2A82318A2A82318A2A82315C
:100108008A2A82318A2A82318A2A82318A2A82314B
:100118008A2A82318A2A82318A2A82318A2A82313B
:100128008A2A82318A2A82318A2A82318A2A82312B
:100138008A2A82318A2A82318A2A82318A2A82311B
:100148008A2A82318A2A82318A2A82318A2A82310B
:100158008A2A82318A2A82318A2A82318A2A8231FB
:0A0168008A2A81313B2982317C2A6A
:100200008B13F03031008D052000A401523086316F
:100210000F268131200097162E000F1C8E2A813167
:1002200023000F1C192981310C082000B000300870
:10023000B4004030230011052000B00023000F0857
:100240003C3920003004B100B2013108A20032086C
:10025000A3008231722AA901A90A82318A2A2908B7
:100260000319422981318131532934088231AF2267
:10027000813182318A2A2000340883315D23813123
:1002800082318A2A20002A08933E031C8A2A81315F
:1002900084005330040203188A2A80310435113E49
:1002A000820082318A2A3408B0003008AA00A901ED
:1002B00082318A2A84313524813182318A2ABB30C5
:1002C00081317F29200033083C3E840086300318AA
:1002D000013E8500000823008C0001302000B000A2
:1002E0003008B30706303302031C8A2A8131B30178
:1002F00082318A2A23008C0182318A2AFF3023002E
:100300008C0082318A2A20002A08E03E031C7E29C4
:10031000840001308A009030040703188A0A8200A2
:100320007A297E297E297E297E297E297E297E2999
:100330007E297E297E297E297E297E297E297E2985
:100340007A297E297E297E297E297E297E297E2979
:100350007E297E297E297E297E297E297E297E2965
:100360007E297E297E297E297E297E297E297E2955
:100370007E297E297E297E297E297E297E297E2945
:100380007E297E297E297E297E297E297E297E2935
:100390007E297E297E297E297E297E297E297E2925
:1003A0007E297E297E297E297E297E297E297E2915
:1003B0007E297E297E297E297E297E297E297E2905
:1003C0007E297E297E297E297E297E297E297E29F5
:1003D0007E297E297E297E297E297E297E297E29E5
:1003E0007E297E295F297E297E297E297E297E29F4
:1003F0007E297E297E297E297E297E297E297E29C5
:100400007E297E297E297E297E297E297E297E29B4
:100410007E297E297E297E297E297E297E297E29A4
:100420007E297E297E297E297E297E297E297E2994
:100430007E297E297E297E297E297E297E297E2984
:100440007E297E297E297E297E297E297E297E2974
:100450007E297E297E297E297E297E297E295A2988
:100460007E297E297E297E297E297E297E297E2954
:100470007E297E297E297E297E297E297E297E2944
:100480007E297E297E297E297E297E297E297E2934
:100490007E297E297E297E297E297E297E297E2924
:1004A0007E297E297E297E297E297E297E297E2914
:1004B0007E297E297E297E297E297E297E297E2904
:1004C0007E297E297E297E297E297E297E297E29F4
:1004D0007E297E2962297E297E297E297E297E2900
:1004E00082318A2A230884000130040203188A2AF0
:1004F00080310435B73E82002208F83E031C8A2A68
:10050000813184002530040203188A2A853104359C
:10051000003E82002E000F102300101685317F252B
:1005200081312000240803190C29863126268131C7
:1005300081310C29FB01FC01203084000030850052
:100540000B30863142268231A03084000030850095
:100550004030863142267E1020008631012EFA007E
:100560007C08031D4A2B7A082000AB002B08FC00F6
:10057000CA2AFB012000A701A601A5010130AB009A
:100580002B08FC070800FC012000A401A40A0800B5
:10059000FC0108007C08113A0319B92A303A031902
:1005A000B92A0B3A0319C32A1B3A0319B92AC82AD4
:1005B00008007A082000AB002B08A5070230F100E4
:1005C0000030F2007A08AB00AC012B08F3002C08D5
:1005D000F40084319A24823171082000AD002D0886
:1005E000A8000130AB002B08FC0734307C06031D4B
:1005F000080007302102003003192002031C080004
:100600002108F2002008F100A030AB002B08F30015
:100610002808AC00AD012C08F4002D08F500853148
:10062000B325080020002608031D202B7A08AB0004
:10063000AC012B08A0002C08A100A601A60A080006
:100640007A08AB00AC012B08AC00AB01FF302005F1
:10065000AE0000302105AF002B082E04A0002C08AE
:100660002F04A1002008AB002B08A5072108AB0030
:100670002B08A5072108AC002008AB00AC36AB0C5A
:100680002B08A0002C08A100A6010130AB002B080C
:10069000FC0708007C08123A0319122B303A0319A0
:1006A000122B013A0319D92A113A0319122B013AD4
:1006B0000319D92A5C2B08000800FA00C32B073065
:1006C00020002102003003192002031C702B21306E
:1006D0007A06031D702B0130F1007108FC07080039
:1006E000A001A101A801FB01A501FC010800200057
:1006F0002708031D8D2B7A08F100F2017B35A03EFF
:10070000860087017108C03F7208C13F7A08F10076
:100710007108A507A701A70AB82B7A08F100F20112
:100720007108F200F1017B35A03E86008701403F51
:10073000F400413FF500FF307405F6000030750508
:10074000F70071087604F80072087704F9007B3529
:10075000A03E860087017808C03F7908C13F7A082B
:10076000F1007108A507A7010130F1007108FB072E
:1007700028087B02031C0800A509A50A0130F10026
:100780007108FC0708007C08243A0319772B023A09
:1007900003195F2BCB2B08001F307105F5000030CB
:1007A0007205F60074087507F70076080318760AD4
:1007B000F80000307802213003197702031CE82B7F
:1007C00071081F39FF3A013E203EF5007508F4001C
:1007D00030001E131E159E1672089B00F901740846
:1007E00079020318322C7908710730009A007408D6
:1007F000FF3EF500FF3003180030F6007608803A1F
:10080000803C031D052C750879020318142C7935DA
:100810007307F500750886008701403FF600413FE9
:10082000F70077083000212C30009E1279357307CD
:10083000F500750886008701403FF600413FF7004C
:1008400077089D0079357307F500750886008701E4
:1008500001089C0086311C2683310130F5007508A3
:10086000F907EF2B30001E1108008E2C2000250800
:1008700023008C000130F1007108FC070800200003
:10088000250823008C002000A001A101A801FB0184
:10089000A501FC01080020002708031D622C7B3500
:1008A000A03E86008701010823008C007B35A03E16
:1008B000860087010108F10071082000A507A70143
:1008C000A70A7F2C7B35A03E86008701403FF100C0
:1008D000413FF200720823008C007B35A03E860069
:1008E0008701403FF100413FF2007208F3007308B6
:1008F0002000A507A7010130F1007108FB072808B7
:100900007B02031C0800A509A50A0130F10071084B
:10091000FC070800FF3023008C0008007C08253A03
:100920000319362C113A03194B2C013A03193F2CA9
:100930008A2C0800F701F21FA42CF109F209F10A30
:100940000319F20AF701F70AF41FAF2CF309F409AF
:10095000F30A0319F40A0130F5007508F706F801E7
:10096000F901710872040319DE2CF601F60AF21B74
:10097000C32C0130F135F20D890BBA2C0130F50092
:100980007508F607B72C0130F835F90D890BC42C22
:1009900072087402031DCE2C71087302031CD52C3F
:1009A0007108F3027208F43B78140130F236F10C4E
:1009B000890BD62C0130F602031DC32C77080319CE
:1009C000E62CF809F909F80A0319F90A7908F2007E
:0609D0007808F1000800A8
:100A000081312B2982318A2A82318A2A82318A2AAB
:100A10008131832982318A2A82318A2A82318A2A43
:100A200082318A2A82318A2A82318A2A82318A2A2A
:100A300082318A2A82318A2A82318A2A82318A2A1A
:100A400082318A2A82318A2A82318A2A82318A2A0A
:100A500082318A2A82318A2A82318A2A82318A2AFA
:100A600082318A2A82318A2A82318A2A82318A2AEA
:100A700082318A2A82318A2A82318A2A82318A2ADA
:100A800081312F2982318A2A82318A2A82318A2A27
:100A9000813183298B0131000D08F03902388D0036
:100AA00086312E2685310B303D00C60015303E00C4
:100AB0009B000C303D00C50014303E009C00863188
:100AC0003526F0303E00B900C4018030CF007F30C1
:100AD000DA000730E500B801C3017E30CE00D9014D
:100AE000E401FF3020009100D8309200FF309300E5
:100AF000FF309400FF309500971217150800AA2DBB
:100B0000073020002102003003192002031C8E2D23
:100B10002108F2002008F1008531E3252000A00122
:100B2000A101FC01080020002108F2002008F100CA
:100B3000A030AB002B08F3002808AC002C08F40010
:100B40008331CC232000A001A101A801FB01A50154
:100B5000FC0108007C08133A0319802D353A03196B
:100B6000932DB22D08007408750403190800300095
:100B70001E13F8017808F600F70175087702031DC7
:100B8000C32D740876020318080078087107F60070
:100B900072080318720AF70077089B00780871073B
:100BA0009A001E14000078357307F6007608860058
:100BB000870130001C08C03F1D08C13F0130F6000E
:100BC0007608F807BA2D1F307105F3000030720562
:100BD000F400F309F409F30A0319F40A710873071E
:100BE000F1007208743DF20030001E1372089B0081
:100BF00071089A001E161E1586311C2630001E1123
:100C0000080085314A2586312000101C90180B2ED3
:100C10008131002186318631262680310F28F1006E
:100C200023009012563090000130910092017135EE
:100C30008D008F01901608008B13553030009F00F7
:100C4000AA309F009E1400000000080020009712A8
:100C5000863148262000A401002F080055303D00B1
:100C60008F00AA308F000F10080055303D008F0014
:100C7000AA308F000F14080000340034A43420344C
:100C800001340134640080010131890B432E0034AA
:060C900023009012080091
:100E00008731182F002908007E14873120007F08C1
:100E1000FD002E000F1C132FA931D1218731B231D3
:100E2000DC222E000F107D082000FF007E1009003C
:100E300087311A2FF0308400223085000030FE0008
:100E40000530FF00A8310220873163308400003074
:100E500085000D30FE000030FF00A83102208731F0
:100E600058308400013085001630FE000030FF004D
:100E7000A83102208731A0308400013085004C3039
:100E8000FE000030FF00A8310220873120308400AE
:100E9000023085002F30FE000030FF00A831022014
:100EA0007E102000B7316B2F7034513403348634F8
:100EB00040340D344F34EB343E34CC34D1348734A9
:100EC0003534BD34F5340B345E34D034F834F23478
:100ED000D534E2346C3431340C34AD34FC34213448
:100EE000C3347834C1340634C2344C345534E63417
:100EF0004A343434483411341E34DA34E7341A3482
:100F00008434A0349634A734E3347F34AF3463346C
:100F10009C34FA3423345B347934C8349E34BA3484
:100F2000B234C934223412344B34B334A134B6341D
:100F300032344934A234E1348934393410346634DB
:100F4000C53407348F345434EA349134CA343F34CE
:100F5000F9341934F034D7344634BC3428341B34D3
:100F60006134E8342F346A34AE349D34F6344E3470
:100F70000934143477344D34DB341F342E347B344D
:100F80007C34F1344334A3340034B83413348C3417
:100F90008534B934293475348834FD34D234563428
:100FA0001C34503497344134E5343B346034B53428
:100FB000C0346434EE349834D6342D342534A4341B
:100FC000AA34CD347D34A8348334C634AB34BE3433
:100FD0004434993426343C34CE349F34BF34D33433
:100FE000CB3476347A347E34823401348A349A3481
:100FF00080341D340E34B0345C34D434383462342C
:10100000F4343034E0348E345334B734023457344B
:10101000AC34A63452340A346D3492346534173407
:1010200024343334453472347434B134B434F73442
:101030005D34ED342C34FF34473437345A34903433
:10104000BB34DF342A34163459349534D934C4349B
:10105000273467347334C7346834FE34A534DD3440
:101060006B345F349334D834EC3405343A348D34F3
:101070006E34FB343D34A93469343634F33494345B
:10108000DE34EF3415346F348B349B3408340F3432
:10109000DC348134183420340434E4347134CF34F3
:1010A000E9342B34423458340134A034A934623446
:1010B000D6343F348534A734B634D434FA341534B6
:1010C000663417340934BD345D3414343434263472
:1010D000593472349134543406344F34F834B034C3
:1010E0005B347434933499348C34F2344534CD34D5
:1010F000EA344E34AD3410344A34E534CA34EE3474
:10110000DF34C6346F349F3488348E340234CC34A8
:101110000834A834773494346D342134B13428340D
:10112000E43439347934963460347134813416348B
:101130002E34E6347834B934C43446349A344234E4
:10114000AE34B7347C344334B33422341A34863466
:10115000C23432343D342D349C34D2342934E93411
:1011600063349B34D134313438345E341E343634F5
:101170004134BB34033418342B343E34BF34683428
:101180006134FC345234C034DE34E0340A34583430
:1011900013345A340034BE341C3490340E34533477
:1011A0001234FD34E2346E34BA34CE34243427346D
:1011B00044347F348734A334A134D534503440349C
:1011C000E334F9348334F734C734A2343534C834C3
:1011D000DB341934AB342F3411342534ED3433344B
:1011E0009E345534E1344834AF3473348434DA34C3
:1011F0002A34AA345134EB349D349534B234CB3490
:10120000E73470348034FE344C3465340434EF34C5
:10121000C534F134C3343A34B434F5345F34233450
:101220008934DD343034A5348B34D334F634DC34B3
:101230004D346434D734F0348F34EC34563437348E
:101240005C34A4340D34073476348A342C340B34B3
:10125000B534D834C1341F34E8343B34F4344B341F
:101260001B3447346C34493467347B349234CF3484
:1012700075347E342034D9347D343C3497347A3418
:10128000D03405346B340F341D34FB34823498343D
:1012900057348D34F3346A34BC34AC34C934A63496
:1012A000FF34B83469340C344C344D347234073460
:1012B0005A34493433348D34A234AB3446343D345B
:1012C00063340D34A0349734FF34F034F534FA34F9
:1012D000C034E934DB346234E434E134743443340C
:1012E000DC348634183429343734F4340634E234A8
:1012F000ED346F34903448341E342D341D34EA34C8
:10130000733494345434DF342534F634473427347A
:10131000D93411347734C93484341C345B345C34AC
:1013200051348134A63422343E3424349634C834C3
:101330008A34EC3482347C340934B83445344A3449
:101340005734BB342F34503475348E346134703498
:101350008C346C34AF34D034FD34B4341B34AE34FC
:10136000DE34FE343B34B5343634BD3455340134C8
:101370000E349C34413456345F34B3342634033451
:101380008334BA3413344B34CA34C5340A34F83491
:101390006034A534B934C734C33498343234FB34A0
:1013A0001234F934A7349234AA346834F3347834DC
:1013B0007E340534203421340234E834BF34F2342E
:1013C000B03459348F34D234CB3487346534153447
:1013D000F1341A34B2343034AD34EE345834A334EA
:1013E0008B3466341F342C34D7345D34193485344F
:1013F000A834E634D3346B34A1340C3491349334B0
:101400006A345E340B347934E334DD3400344F34E1
:101410003C3489346E3471346934A934AC3440348A
:10142000E53499342834C63431344E347A34CD34EA
:1014300008349E347D34EF341734FC348834D83487
:10144000A4346D3444349534D134B734D4349B341B
:10145000BE342A34343464342B34CF342E34EB3459
:101460003834CE342334E0343A343F34F7347B34E8
:101470009F3410345334BC34523467341634E73458
:10148000803476340434C434B634C134C2347F3446
:101490009A34DA34D5343934423414349D34B13486
:1014A0000F343534D634CC34B934DA3438340C34DF
:1014B000A2349C3409341F340634B134B634FD34BC
:1014C0001A34693423343034C434DE340134D13432
:1014D000F4345834293437341C347D34D534BF3493
:1014E000FF34BD34C834C934CF346534BE347B34A2
:1014F00078349734983467340834B3342634573406
:10150000F734FA344034AD348E347534A6347C3438
:10151000DB3491348B3451349934D43417347A34E5
:1015200090348D34CE346334CB344E34A034AB3469
:1015300018343A345B3450347F3421347434C13439
:10154000BB34B834B734BA340B3435349534313411
:1015500059349A344D34043407341E345A347634B2
:101560001334F33471348334D03486340334A834E0
:1015700039344234AA342834E634E434D8345D347F
:10158000D334D0346E346F349634FB345E34BC3490
:101590005634C2345F3485349B34E734AF34D234AC
:1015A0003B3484346A34A7345334C5344434493426
:1015B000A534F934363472343D342C34D9341B34E8
:1015C000A134F5344F3493349D3468344734413476
:1015D0001634CA342A344C34A3348734D634E53430
:1015E00019342E34773415346D347034C034DF340C
:1015F000B23400344634ED34C6346C344334603491
:1016000092342D34A934223445348F343434553453
:10161000AE34A4340A3466343234E034DC34023478
:10162000AC34E83420348C34893462344A34FE34A7
:10163000EE34C334E3343C34F13479340534E934E2
:10164000F63427343334CC34F2349E3411348134BC
:101650007E34803410348A3482349F3448340D34DC
:10166000D734B434FC342F34B534C734DD34883443
:1016700014346B342B345434EA341D3494345C34D5
:10168000B034EF3412342434CD34EB34E134E2346A
:10169000643473343F340E345234613425343E3470
:1016A000F8340F344B34EC34C03400343034F63476
:1016B000023449343D3410346E342034C934A634F5
:1016C0002F34FE342C342B3475342E3445342634E8
:1016D000AB344834A9348034FC340434CC34D334AF
:1016E000B534BA34A334383431347D340134D93488
:1016F000A7347B349634B634633469344E34F734CB
:10170000DE34E0347834CA345034AA34413491346D
:1017100065348834E43421348534DA343A34273477
:10172000BE341C343E3442345E34173452347F3479
:101730001F34893424346F348F345C346734743408
:101740000E34123487348D34E9343434ED34733448
:10175000C434F83461345B340534DF3459344C34E8
:101760009734793483341834A43455349534EB34B5
:10177000BD345334F534F1345734663446349F3431
:10178000B234813409345134863422341634DD3491
:101790002334933476342934C234D7341D34D434CA
:1017A000BF3436343F34EA344B3411343234B93434
:1017B000623454346034D6346D3443349A340D3446
:1017C00092349C34B034EF3458346C349D347734D4
:1017D0002D347034FA34F334B3340B34E2344034FF
:1017E0007E34F4348A34E5348C343C3456347134E9
:1017F000D1346434E13482340A34CB3413341534B4
:101800009034EC3403349934AF3414345D340F34F1
:1018100033344A349434A534A83435341B34E33497
:101820006A34C6342834FF344D34E73425348434E4
:10183000AC340834AE34C534A2342A34B834373426
:101840000C347A34A034C334CE34AD3406341A3474
:101850009E348B34FB34D534D034C1341E34D03470
:10186000B4349B34B1344434F2344734C73468342C
:10187000CF347234BB344F345A34F934DC346B34E3
:10188000DB34D234E8347C34C834EE349834A134B8
:10189000E634D834393407345F34FD348E341934A7
:1018A000B7343B34BC34CD347C34E33481347334CA
:1018B000B2341134BF346F3420349834FE3475346C
:1018C0009634EF346C34DA345034E1340934723401
:1018D00054344534BA34343480345B34ED343E34DB
:1018E00053342C348734A4345734F33433343F34F2
:1018F0003C34B7346734B434A334253460344F34C3
:1019000007346B341B34473415340F34E4340A3451
:10191000EA34D13432347834363449348D344B346B
:10192000D234BC34A534DC341D340D344D34CD34C4
:101930009A3482345F34FC3494346534BE34E234F7
:10194000F434C9341E344434CB349E340C346434FF
:10195000713426346334B3341434E834403470348E
:101960008A340E34193442346D34AC348834103433
:101970005C34DF344134A934AD34E534FB347434A1
:10198000CC34D53406348E3459348634CE341F34B6
:101990003D347634E0348F34B934773427347B34B3
:1019A000A634D8342934D334EC34B8341334F7346F
:1019B000FA34C33451346A34DE344A345A34EB34A2
:1019C000C2348B34233448349234CF346234A83454
:1019D0009934F834D0342E34853461344334C834E7
:1019E000BD34F03405349334CA344E34F1347D348C
:1019F0003034FD34C434693466342F340834B1349F
:101A00005234F9342134E6347A342B34DD34393429
:101A10008434FF34C0349134D6343734D4347F34F2
:101A20002D349B345D34A1343B346E34B534C5342D
:101A300046340434F5349034EE347E3483341C342C
:101A400003345634B634AA340034173401343534F0
:101A5000553479340B341234BB341A343134E7340E
:101A6000023428341634C134F634A234DB3418344A
:101A70009C348934683438349734AB34C7342A34CE
:101A8000D7343A34F234C63424344C34B034583475
:101A9000A03422345E349D34D934A734E934AE34D2
:101AA000AF348C3495349F342834B7342034D73451
:101AB000B0343034C33409341934C0346734D634C4
:101AC00000343C347E34E734E934F43408345A3496
:101AD000F834B8342E340534A63425349E345C34BE
:101AE000D83415340D34E134F634113454346B34B5
:101AF000CD342134463466345E348434AD34063417
:101B0000383429344434C534A234CE34F134AA34C0
:101B1000C134403471348634B534EF34FC34363457
:101B2000A834CB340A344834273445346434A334DD
:101B3000AF348C34B234C6349F3407348934DC3447
:101B40001734D33449347934FB34FE341D34D03463
:101B5000B934883443345234BC34013478342B34AF
:101B60007D349434C7340E34DE34A534D5349B34FC
:101B7000CC34F73461347A34C23474348134393437
:101B80000334AB349634A0343734BD342D3472343E
:101B900075343F34C934D4348E346F34F9348D34D1
:101BA000ED346234DB341C34DF340434AC341B34A5
:101BB0006C3414344B346334D034BF34B434823492
:101BC000EC347B341A3459349234D23410346034C7
:101BD000B6343D345F34E63480346E347034C4340B
:101BE000F2343534D9347C34EE34E5344134A43421
:101BF0005B345034DD34BB344C34F3341F349D3407
:101C00005D345734553451349734E33458344234C6
:101C10004D349C347334BA34C83477343134693435
:101C20002634AE34EA348A34DA342234B334873496
:101C30005634FA3493340B34343416343334E834B1
:101C4000E4345334BE34A934B1343A343E34F53438
:101C500090346A34CF343B341234FD348F349A34A8
:101C6000A734473491349934EB340F342434FF349F
:101C70002334183485344E347F340C34E034A134AA
:101C8000D234D1342C342A344A3402344F341E3402
:101C9000953468348B34983483346D347634CA3454
:101CA0006534323413342F34C33482349A34A43438
:101CB000BA3481346034373434343534FC348034CD
:101CC000A834513465346734ED3430345F34103423
:101CD000D3344A3427342F341334B9342A34D23429
:101CE000CC34E134EF34AE34EB34BE34F434BD34B0
:101CF000CF344334B334C53488348434B734DD341A
:101D000039344034CE3448346D349B3472346134C9
:101D10007E34E734A1344E3453342E3477343B349C
:101D2000E234C934363422341B346E347334B13463
:101D30000334B2344C348734A934D4344D340F34A2
:101D4000D83415346C34AA341834F6344934573442
:101D50005D34FB347A34143494346334A034113455
:101D6000B0349E34DE3405344634C834EE3447345F
:101D7000DB34DC34243489349C3491349734293472
:101D8000E9347B34C13407341E34B834FD34FE34B6
:101D9000AC34C634623498344F34F1347934E0349E
:101DA000E8346B3478345634B6348D3404345034DB
:101DB0008634CA346F342034E634EA34E534763479
:101DC00017341C3474347F34BC340D342C348534D3
:101DD000F73466349634E4348B3475343F344B3402
:101DE000D9343834AF347C34DA340B3483342D3482
:101DF00031343234A234F5341D345934413445344D
:101E0000BF343C341F34F834F9348A34D0341634B7
:101E100025346934123499349D3421349534AB34EB
:101E20000134A634D734B534C0347D34FF3458344B
:101E30000E343A349234D1345534E33408349F3478
:101E4000D6343E3452348E34FA34A334C734023498
:101E5000CD34DF348F34643419348C34F334A73404
:101E60000C345E340A346A340934F03493345B340D
:101E70004234C23406342334EC347134AD34B434D7
:101E8000CB34BB3470342834D5341A345C34333416
:101E900068345A34003444349034A534C43426347D
:101EA0003D342B34F23454349634AD34DA341F34A8
:101EB000ED343334E1348134693408340D340A3478
:101EC000DB34353477349A346434D134FC347834A8
:101ED000AA341B34D0346734A034DD34FA346C3483
:101EE000633471340534843417346A3489344F349C
:101EF00066347F34C6345034553492346F34BD3434
:101F0000E734D234403472348D34BB34EC3406348C
:101F100042348A34E43488349D347E347A348234D2
:101F20002734133441341A34AF34C834A4347634EB
:101F3000B434C234FE346D341C34D934613430349A
:101F4000B3347C34EA34F73429340F34F2343B347C
:101F50005134C134DE345F34E5342A342F349934BB
:101F60000B345D34A3342B344A34AB349534A5346C
:101F7000D33458345634EE34283431340034CC342D
:101F800015344634CA34E634863438343C34653447
:101F9000F534E3349F34D6345B3409344934833424
:101FA00070342D345334A9347D34E234C434AC3429
:101FB0008E345E34B8342534F434B9345734F334C1
:101FC000F13468344734B234A23459342034CE3436
:101FD000343479345C3490340E341E34BE34D53409
:101FE00022342334B134C9341834623416342E34D4
:101FF00091343E3407348F34D8343F3493343D34F5
:10200000D4349B34DF3485342134FB3411347434BC
:102010009734C734D734DC344C34193445349834CD
:10202000E934433402344B34BC34C33404349C3478
:102030006B34F03475345234A7342634F634C53456
:10204000BA34CF34B034B734AE345A34A134BF3498
:1020500003348B34803412346E340C34EB34F93462
:10206000C03444342434EF341034F834A8348C347D
:10207000E8347B34FF349E342C34CD346034363431
:102080008734B5349434A634543473343A34143425
:102090004E3401341D34B634FD34373448344D34B5
:1020A0003934CB34E034323400340034003400347A
:1020B0000034003400340034003400340034003480
:1020C0000034003400340034003400340034003470
:1020D0000034003400340034003400340034003460
:1020E0000034003400340034003400340034003450
:1020F0000034003400340034003400340034003440
:10210000003400340034003400340034003400342F
:10211000003400340034003400340034003400341F
:10212000003400340034003400340034003400340F
:1021300000340034003400340034003400340034FF
:1021400000340034003400340034003400340034EF
:1021500000340034003400340034003400340034DF
:1021600000340034003400340034003400340034CF
:1021700000340034003400340034003400340034BF
:1021800000340034003400340034003400340034AF
:10219000003400340034003400340034003400349F
:1021A000003400340034003400340034003400348F
:1021B000003400340034003400340034003400347F
:1021C000003400340034003400340034003400346F
:1021D000003400340034003400340034003400345F
:1021E000003400340034003400340034003400344F
:1021F000003400340034003400340034003400343F
:10220000003400340034003400340034003400342E
:10221000003400340034003400340034003400341E
:10222000003400340034003400340034003400340E
:1022300000340034003400340034003400340034FE
:1022400000340034003400340034003400340034EE
:1022500000340034003400340034003400340034DE
:1022600000340034003400340034003400340034CE
:1022700000340034003400340034003400340034BE
:1022800000340034003400340034003400340034AE
:10229000003400340034003400340034003400349E
:0822A000003400340034003466
:1022AC0023009A120A309A0010309C0021003A0840
:1022BC00C1003B08C2003C08C3003D08C40002300A
:1022CC00C135C20DC30DC40D890B66294408AF007E
:1022DC004308AE004208AD004108AC000030B3002A
:1022EC007A30B2001230B1000030B000A8310E20AC
:1022FC00913121002C08FF3E2300970021003E085D
:10230C000139C100C10E23001A0821004106EF3922
:10231C00410623009A0021003F080139C100C10E7B
:10232C00C10DC10D2300190821004106BF3941061A
:10233C0023009900210040080139C100C10CC10CD7
:10234C0023001908210041067F394106230099001A
:10235C009A1608002D308400B83085000008220041
:10236C00A0000430A036890BB82920080339A1003D
:10237C00A2012A308400B83085000008A300A40113
:10238C00A335A40DA335A40D21082304CB002208EA
:10239C002404CC00CD01CC1BCD034D08CE002D3038
:1023AC008400B83085000008A0000230A036890BEC
:1023BC00DC2920080339A100A2012B308400B8309D
:1023CC0085000008A300A401A335A40DA335A40D1A
:1023DC0021082304CF0022082404D000D101D01BF3
:1023EC00D1035108D2002D308400B830850000088C
:1023FC000339A000A1012C308400B83085000008FE
:10240C00A200A301A235A30DA235A30D200822041E
:10241C00D30021082304D400D501D41BD5035508BF
:10242C00D60031308400B83085000008A00004309C
:10243C00A036890B1E2A20080339A100A2012E30D8
:10244C008400B83085000008A300A401A335A40DB6
:10245C00A335A40D21082304B70022082404B800D6
:10246C00B901B81BB9033908BA0031308400B8304F
:10247C0085000008A0000230A036890B422A2008F3
:10248C000339A100A2012F308400B8308500000868
:10249C00A300A401A335A40DA335A40D2108230486
:1024AC00BB0022082404BC00BD01BC1BBD033D08BD
:1024BC00BE0031308400B830850000080339A0001C
:1024CC00A10130308400B83085000008A200A301BF
:1024DC00A235A30DA235A30D20082204BF002108AC
:1024EC002304C000C101C01BC1034108C20023006A
:1024FC006008803E2100A000FF3003180030A100CE
:10250C0023006008803E2100A200FF300318003039
:10251C00A300B43140249131210020082200A000F6
:10252C00210021082200A10023006108803E210027
:10253C00A000FF3003180030A10023006108803E8A
:10254C002100A200FF3003180030A300B431402456
:10255C0091312100200822002007A200210021082F
:10256C002200213DA300240028082200A400A5017C
:10257C0024082100A000220025082100A10024002D
:10258C0028082200A600A70126082100A20022008C
:10259C0027082100A300B4314024913121002108E7
:1025AC0022002302031DDE2A210020082200220221
:1025BC00031CE42A24003308031DEF2A7F30220079
:1025CC00A00020082300C2007F302200A0002008B9
:1025DC00AD2C24002A0803195C2B23006008F03E64
:1025EC00860087012230873D01082200A000A1014E
:1025FC00A009A109A00A0319A10A2008FF3E210085
:10260C00BA0000302200213D2100BB00BC01BB1BE5
:10261C00BC033C08BD000030C1000030C0000030DD
:10262C00BF000030BE000030C5000030C4000030D8
:10263C00C300FF30C20033308400B830850000087E
:10264C002200A200A301A401A50125082100C900B4
:10265C00220024082100C800220023082100C70002
:10266C00220022082100C60032308400B8308500D8
:10267C0000082200A600A701A801A9012908210031
:10268C00CD00220028082100CC00220027082100C0
:10269C00CB00220026082100CA00A9313721913134
:1026AC0021003A082200AA002A08C22B2300600845
:1026BC00F03E860087012230873D01082200A000F1
:1026CC00A101A201A30123082100BD0022002208C0
:1026DC002100BC00220021082100BB0022002008A0
:1026EC002100BA000030C1000030C0000030BF0033
:1026FC000030BE000030C5000030C4000030C30004
:10270C00FF30C20033308400B8308500000822004E
:10271C00A400A501A601A70127082100C9002200D9
:10272C0026082100C800220025082100C70022002D
:10273C0024082100C60032308400B830850000081F
:10274C002200A800A901AA01AB012B082100CD0091
:10275C0022002A082100CC00220029082100CB00ED
:10276C00220028082100CA00A9313721913121000B
:10277C003A082200AC002C082300C20024002B08CD
:10278C0003193C2C23006108003E2200A0000130FC
:10279C0003180230A100F030A2002230A300200860
:1027AC00220786002108233D87000108A400A5010B
:1027BC00A409A509A40A0319A50A2408FF3E2100AF
:1027CC00BA0000302200253D2100BB00BC01BB1B20
:1027DC00BC033C08BD000030C1000030C00000301C
:1027EC00BF000030BE000030C5000030C400003017
:1027FC00C300FF30C20036308400B83085000008BA
:10280C002200A600A701A801A90129082100C900DE
:10281C00220028082100C800220027082100C70038
:10282C00220026082100C60035308400B83085000F
:10283C0000082200AA00AB01AC01AD012D0821005B
:10284C00CD0022002C082100CC0022002B082100F6
:10285C00CB0022002A082100CA00A931372191316E
:10286C0021003A082200AE002E08AD2C230061088E
:10287C00003E2200A000013003180230A100F0300D
:10288C00A2002230A3002008220786002108233D45
:10289C0087000108A400A501A601A70127082100B3
:1028AC00BD00220026082100BC00220025082100C2
:1028BC00BB00220024082100BA000030C100003007
:1028CC00C0000030BF000030BE000030C50000303A
:1028DC00C4000030C300FF30C20036308400B83072
:1028EC00850000082200A800A901AA01AB012B0851
:1028FC002100C90022002A082100C8002200290852
:10290C002100C700220028082100C60035308400B1
:10291C00B830850000082200AC00AD01AE01AF015B
:10292C002F082100CD0022002E082100CC0022000F
:10293C002D082100CB0022002C082100CA00A9314F
:10294C003721913121003A082200B00030082300D1
:10295C00C300240030080319272D22003708A000DB
:10296C003808A1003908A2003A08A3004B09A400BA
:10297C004C09A5004D09A6004E09A700A40A03198D
:10298C00A50A0319A60A0319A70A2408A0072508F3
:10299C00A13D2608A23D2708A33D23082100A30042
:1029AC00220022082100A200220021082100A100FF
:1029BC00220020082100A000230066082200A800A5
:1029CC00230067082200A9000030A91BFF30AA00D1
:1029DC00AB0028092100A400220029092100A50030
:1029EC0022002A092100A60022002B092100A700A1
:1029FC00A40A0319A50A0319A60A0319A70AB531D3
:102A0C0034259131210020082200AC00210021083E
:102A1C002200AD00210022082200AE002100230874
:102A2C002200AF000830AF36AE0CAD0CAC0C890BED
:102A3C00192D4B082C072300C80022004C082D3DF3
:102A4C00842D22003708A0003808A1003908A20004
:102A5C003A08A3004B09A4004C09A5004D09A60097
:102A6C004E09A700A40A0319A50A0319A60A0319FB
:102A7C00A70A2408A0072508A13D2608A23D27087F
:102A8C00A33D23082100A300220022082100A2005C
:102A9C00220021082100A100220020082100A00012
:102AAC00230066082100A400230067082100A5006C
:102ABC00890D893B8909A600A700B53134259131D0
:102ACC00210020082200A800210021082200A900D2
:102ADC00210022082200AA00210023082200AB00BA
:102AEC000830AB36AA0CA90CA80C890B772D4B0817
:102AFC0028072300C80022004C08293D2300C900E8
:102B0C00240031080319FE2D22003B08A0003C08CC
:102B1C00A1003D08A2003E08A3004F09A4005009E3
:102B2C00A5005109A6005209A700A40A0319A50A79
:102B3C000319A60A0319A70A2408A0072508A13D12
:102B4C002608A23D2708A33D23082100A30022004C
:102B5C0022082100A200220021082100A10022004D
:102B6C0020082100A000230068082200A8002300F0
:102B7C0069082200A9000030A91BFF30AA00AB0095
:102B8C0028092100A400220029092100A500220007
:102B9C002A092100A60022002B092100A700A40A63
:102BAC000319A50A0319A60A0319A70AB531342576
:102BBC009131210020082200AC00210021082200C4
:102BCC00AD00210022082200AE00210023082200C3
:102BDC00AF000830AF36AE0CAD0CAC0C890BF02D41
:102BEC004F082C072300CA00220050082D3D5B2EF5
:102BFC0022003B08A0003C08A1003D08A2003E08B2
:102C0C00A3004F09A4005009A5005109A6005209C0
:102C1C00A700A40A0319A50A0319A60A0319A70AEF
:102C2C002408A0072508A13D2608A23D2708A33D9E
:102C3C0023082100A300220022082100A200220068
:102C4C0021082100A100220020082100A00023005F
:102C5C0068082100A400230069082100A500890D43
:102C6C00893B8909A600A700B53134259131210093
:102C7C0020082200A800210021082200A900210020
:102C8C0022082200AA00210023082200AB000830F1
:102C9C00AB36AA0CA90CA80C890B4E2E4F08280792
:102CAC002300CA0022005008293D2300CB00240039
:102CBC0032080319D52E22003F08A0004008A100BD
:102CCC004108A2004208A3005309A4005409A5001E
:102CDC005509A6005609A700A40A0319A50A031949
:102CEC00A60A0319A70A2408A0072508A13D26084F
:102CFC00A23D2708A33D23082100A300220022089F
:102D0C002100A200220021082100A100220020089D
:102D1C002100A00023006A082200A80023006B08F1
:102D2C002200A9000030A91BFF30AA00AB00280923
:102D3C002100A400220029092100A50022002A0953
:102D4C002100A60022002B092100A700A40A0319C8
:102D5C00A50A0319A60A0319A70AB531342591311E
:102D6C00210020082200AC00210021082200AD0027
:102D7C00210022082200AE00210023082200AF000F
:102D8C000830AF36AE0CAD0CAC0C890BC72E53080B
:102D9C002C072300CC00220054082D3D322F22009A
:102DAC003F08A0004008A1004108A2004208A3006F
:102DBC005309A4005409A5005509A6005609A700FB
:102DCC00A40A0319A50A0319A60A0319A70A2408B9
:102DDC00A0072508A13D2608A23D2708A33D2308EE
:102DEC002100A300220022082100A20022002108B9
:102DFC002100A100220020082100A00023006A0865
:102E0C002100A40023006B082100A500890D893B3B
:102E1C008909A600A700B53134259131210020087D
:102E2C002200A800210021082200A900210022086C
:102E3C002200AA00210023082200AB000830AB3688
:102E4C00AA0CA90CA80C890B252F530828072300C2
:102E5C00CC0022005408293D2300CD00420822005A
:102E6C00A0002008C300230043082200A000200873
:102E7C00C4000630C23E860001308700403FA000EF
:102E8C00413FA100210DA10CA00C210DA10CA00C07
:102E9C002008A2002208C5000830C23E860001307E
:102EAC008700403FA000413FA100210DA10CA00CC8
:102EBC00210DA10CA00C2008A2002208C6000A308B
:102ECC00C23E860001308700403FA000413FA10078
:102EDC00210DA10CA00C210DA10CA00C2008A2000E
:102EEC002208C7000130230041052200A000230066
:102EFC00400801392200A1000130A135890B832F34
:102F0C00230048082200A2000230A235890B8B2F27
:102F1C000C302205A30023004A082200A400043030
:102F2C00A435890B962F30302405A50023004C08BE
:102F3C002200A6000530A635FF3E031DA12F263525
:102F4C00C0392504230421042004A7002708C80045
:102F5C0043302100A0000130A10006302200A00067
:102F6C0020082100A2000030B53164259131C72F13
:102F7C0020006C080A3A0319FE2F013A0319B029F4
:102F8C00C72F2200660803190800230060082200DE
:102F9C00A0002008B100230061082200A000200836
:102FAC00B200230062082200A0002008B300230016
:102FBC0063082200A0002008B4002300640822004B
:102FCC00A0002008B500230065082200A0002008FE
:102FDC00B60031302100A0000130A10006302200E3
:102FEC00A00020082100A2007030B5316425080033
:102FFC0098310B28553030009F00AA309F009E144A
:10300C000000000008009731BE2F23006008803EAE
:10301C002100A000FF3003180030A100230060083D
:10302C00803E2100A200FF3003180030A300B43111
:10303C0040249831210020082200A0002100210802
:10304C002200A10023006108803E2100A000FF3077
:10305C0003180030A10023006108803E2100A2006B
:10306C00FF3003180030A300B43140249831210004
:10307C00200822002007A200210021082200213D67
:10308C00A300240028082200A400A5012408210084
:10309C00A000220025082100A100240028082200FD
:1030AC00A600A70126082100A20022002708210063
:1030BC00A300B431402498312100210822002302BE
:1030CC00031D6C282100200822002202031C7228F8
:1030DC0024003308031D7D287F302200A000200827
:1030EC002300C2007F302200A00020083B2A2400CD
:1030FC002A080319EA2823006008F03E860087019D
:10310C002230873D01082200A000A101A009A109DD
:10311C00A00A0319A10A2008FF3E2100BA000030C2
:10312C002200213D2100BB00BC01BB1BBC033C08A1
:10313C00BD000030C1000030C0000030BF000030C6
:10314C00BE000030C5000030C4000030C300FF30AA
:10315C00C2004B308400B830850000082200A20069
:10316C00A301A401A50125082100C90022002408FF
:10317C002100C800220023082100C70022002208D9
:10318C002100C6004A308400B830850000082200B7
:10319C00A600A701A801A90129082100CD00220041
:1031AC0028082100CC00220027082100CB00220097
:1031BC0026082100CA00A9313721983121003A088C
:1031CC002200AA002A08502923006008F03E86003D
:1031DC0087012230873D01082200A000A101A20135
:1031EC00A30123082100BD00220022082100BC00FD
:1031FC00220021082100BB00220020082100BA0077
:10320C000030C1000030C0000030BF000030BE00F4
:10321C000030C5000030C4000030C300FF30C200D5
:10322C004B308400B830850000082200A400A501B2
:10323C00A601A70127082100C900220026082100A9
:10324C00C800220025082100C70022002408210004
:10325C00C6004A308400B830850000082200A8005F
:10326C00A901AA01AB012B082100CD0022002A08DC
:10327C002100CC00220029082100CB0022002808C4
:10328C002100CA00A9313721983121003A082200C7
:10329C00AC002C082300C20024002B080319CA29F7
:1032AC0023006108003E2200A00001300318023008
:1032BC00A100F030A2002230A300200822078600D3
:1032CC002108233D87000108A400A501A409A50934
:1032DC00A40A0319A50A2408FF3E2100BA000030F5
:1032EC002200253D2100BB00BC01BB1BBC033C08DC
:1032FC00BD000030C1000030C0000030BF00003005
:10330C00BE000030C5000030C4000030C300FF30E8
:10331C00C2004E308400B830850000082200A600A0
:10332C00A701A801A90129082100C9002200280829
:10333C002100C800220027082100C700220026080F
:10334C002100C6004D308400B830850000082200F2
:10335C00AA00AB01AC01AD012D082100CD0022006B
:10336C002C082100CC0022002B082100CB002200CD
:10337C002A082100CA00A9313721983121003A08C6
:10338C002200AE002E083B2A23006108003E2200DA
:10339C00A000013003180230A100F030A20022304E
:1033AC00A3002008220786002108233D870001087E
:1033BC00A400A501A601A70127082100BD00220039
:1033CC0026082100BC00220025082100BB00220099
:1033DC0024082100BA000030C1000030C0000030C9
:1033EC00BF000030BE000030C5000030C40000300B
:1033FC00C300FF30C2004E308400B8308500000896
:10340C002200A800A901AA01AB012B082100C900C8
:10341C0022002A082100C800220029082100C70028
:10342C00220028082100C6004D308400B8308500E9
:10343C0000082200AC00AD01AE01AF012F08210045
:10344C00CD0022002E082100CC0022002D082100E6
:10345C00CB0022002C082100CA00A9313721983159
:10346C0021003A082200B00030082300C300620893
:10347C00803E2100A000FF3003180030A100230083
:10348C006208803E2100A200FF3003180030A30028
:10349C00B43140249831210020082200A0002100E2
:1034AC0021082200A10023006308803E2100A00017
:1034BC00FF3003180030A10023006308803E210078
:1034CC00A200FF3003180030A300B431402498311F
:1034DC002100200822002007A20021002108220040
:1034EC00213DA300240029082200A400A5012408E2
:1034FC002100A000220025082100A1002400290899
:10350C002200A600A70126082100A20022002708FD
:10351C002100A300B431402498312100210822005D
:10352C002302031D9D2A2100200822002202031CD5
:10353C00A32A24003408031DAE2A7F302200A000E9
:10354C0020082300C4007F302200A0002008822C19
:10355C0024002C080319262B23006208003E2200AD
:10356C00A000023003180330A100F030A20022307A
:10357C00A3002008220786002108233D87000108AC
:10358C00A400A501A409A509A40A0319A50A2408E5
:10359C00FF3E2100BA0000302200253D2100BB0077
:1035AC00BC01BB1BBC033C08BD000030C10000309B
:1035BC00C0000030BF000030BE000030C50000303D
:1035CC00C4000030C300FF30C20051308400B8305A
:1035DC00850000082200A600A701A801A90129085E
:1035EC002100C900220028082100C8002200270859
:1035FC002100C700220026082100C600503084009C
:10360C00B830850000082200AA00AB01AC01AD0166
:10361C002D082100CD0022002C082100CC00220016
:10362C002B082100CB0022002A082100CA00A93156
:10363C003721983121003A082200AE002E08972B32
:10364C0023006208003E2200A00002300318033061
:10365C00A100F030A2002230A3002008220786002F
:10366C002108233D87000108A400A501A601A7019C
:10367C0027082100BD00220026082100BC002200E2
:10368C0025082100BB00220024082100BA000030CC
:10369C00C1000030C0000030BF000030BE00003060
:1036AC00C5000030C4000030C300FF30C2005130F0
:1036BC008400B830850000082200A800A901AA01E6
:1036CC00AB012B082100C90022002A082100C800E8
:1036DC00220029082100C700220028082100C6006A
:1036EC0050308400B830850000082200AC00AD01D9
:1036FC00AE01AF012F082100CD0022002E082100C1
:10370C00CC0022002D082100CB0022002C08210027
:10371C00CA00A9313721983121003A082200B000A3
:10372C0030082300C40024002D080319112C230099
:10373C006308003E2200A000033003180430A100EF
:10374C00F030A2002230A3002008220786002108B6
:10375C00233D87000108A400A501A409A509A40A1A
:10376C000319A50A2408FF3E2100BA0000302200EC
:10377C00253D2100BB00BC01BB1BBC033C08BD00AC
:10378C000030C1000030C0000030BF000030BE006F
:10379C000030C5000030C4000030C300FF30C20050
:1037AC0054308400B830850000082200A600A70120
:1037BC00A801A90129082100C9002200280821001C
:1037CC00C800220027082100C7002200260821007B
:1037DC00C60053308400B830850000082200AA00CF
:1037EC00AB01AC01AD012D082100CD0022002C084D
:1037FC002100CC0022002B082100CB0022002A083B
:10380C002100CA00A9313721983121003A08220041
:10381C00AE002E08822C23006308003E2200A0007C
:10382C00033003180430A100F030A2002230A300B2
:10383C002008220786002108233D87000108A400E8
:10384C00A501A601A70127082100BD00220026081A
:10385C002100BC00220025082100BB002200240806
:10386C002100BA000030C1000030C0000030BF00A1
:10387C000030BE000030C5000030C4000030C30072
:10388C00FF30C20054308400B8308500000822009C
:10389C00A800A901AA01AB012B082100C900220034
:1038AC002A082100C800220029082100C700220094
:1038BC0028082100C60053308400B8308500000869
:1038CC002200AC00AD01AE01AF012F082100CD00EC
:1038DC0022002E082100CC0022002D082100CB0054
:1038EC0022002C082100CA00A9313721983121006F
:1038FC003A082200B00030082300C5002400350827
:10390C00031D9B2C56308400B83085000008220023
:10391C00A00020082300C60057308400B830850072
:10392C0000082200A0002008E72D24002E0803190F
:10393C00F12C230064082200A000A101A009A10918
:10394C00A00A0319A10A2008FF3E2100BA0000308A
:10395C002200213D2100BB00BC01BB1BBC033C0869
:10396C00BD000030C1000030C0000030BF0000308E
:10397C00BE000030C5000030C4000030C300FF3072
:10398C00C20056308400B830850000082200A20026
:10399C00A301A401A50125082100C90022002408C7
:1039AC002100C800220023082100C70022002208A1
:1039BC002100C6000030CD000030CC000030CB0020
:1039CC00FF30CA00A9313721983121003A08220072
:1039DC00A6002608402D230064082200A000A101A7
:1039EC00A201A30123082100BD002200220821000E
:1039FC00BC00220021082100BB002200200821006D
:103A0C00BA000030C1000030C0000030BF000030F0
:103A1C00BE000030C5000030C4000030C300FF30D1
:103A2C00C20056308400B830850000082200A40083
:103A3C00A501A601A70127082100C900220026081C
:103A4C002100C800220025082100C70022002408FC
:103A5C002100C6000030CD000030CC000030CB007F
:103A6C00FF30CA00A9313721983121003A082200D1
:103A7C00A80028082300C60024002F080319982D3D
:103A8C00230065082200A000A101A009A109A00A39
:103A9C000319A10A2008FF3E2100BA0000302200C1
:103AAC00213D2100BB00BC01BB1BBC033C08BD007D
:103ABC000030C1000030C0000030BF000030BE003C
:103ACC000030C5000030C4000030C300FF30C2001D
:103ADC0057308400B830850000082200A200A301F2
:103AEC00A401A50125082100C900220024082100F9
:103AFC00C800220023082100C70022002208210050
:103B0C00C6000030CD000030CC000030CB00FF30C0
:103B1C00CA00A9313721983121003A082200A600A9
:103B2C002608E72D230065082200A000A101A201B0
:103B3C00A30123082100BD00220022082100BC00A3
:103B4C00220021082100BB00220020082100BA001D
:103B5C000030C1000030C0000030BF000030BE009B
:103B6C000030C5000030C4000030C300FF30C2007C
:103B7C0057308400B830850000082200A400A5014D
:103B8C00A601A70127082100C90022002608210050
:103B9C00C800220025082100C700220024082100AB
:103BAC00C6000030CD000030CC000030CB00FF3020
:103BBC00CA00A9313721983121003A082200A80007
:103BCC0028082300C700220065080319BD2E230016
:103BDC0042082200A0002008C30023004408220051
:103BEC00A0002008C400230043082200A0002008E5
:103BFC00C500230045082200A0002008C6002300B1
:103C0C0046082200A0002008C70023004708220015
:103C1C00A0002008C8002300390801392200A000A8
:103C2C000130A035890B172E23003D0801392200E5
:103C3C00A1000230A135890B202E23003F08013949
:103C4C002200A2000330A235890B292E23003E0846
:103C5C0001392200A3000430A335890B322E230036
:103C6C003B0801392200A4000530A435890B3B2EFA
:103C7C002300360801392200A5000630A535890B32
:103C8C00442E2300370801392200A6000630A63541
:103C9C00FF3E031D4D2E2635250424042304220447
:103CAC00210420040138A7002708C9000130230093
:103CBC0035052200A0002300380801392200A1009C
:103CCC000130A135890B672E23003A0801392200F7
:103CDC00A2000230A235890B702E23003308013963
:103CEC002200A3000330A335890B792E2300310861
:103CFC0001392200A4000430A435890B822E230044
:103D0C00340801392200A5000530A535890B8B2E0E
:103D1C002300320801392200A6000630A635890B93
:103D2C00942E23003C0801392200A7000630A73549
:103D3C00FF3E031D9D2E2735260425042404230451
:103D4C00220421042004A8002808CA0043302100C2
:103D5C00A0000130A10008302200A00020082100A2
:103D6C00A2000030B531642598319731C72F23005C
:103D7C0042082200A0000230A036890BC22E200877
:103D8C00A10021082300C20043082200A000023039
:103D9C00A036890BCE2E2008A10021082300C300D9
:103DAC0044082200A0000330A036890BDA2E20082C
:103DBC00A10021082300C40045082200A000033004
:103DCC00A036890BE62E2008A10021082300C5008F
:103DDC0046082200A0000330A036890BF22E2008E2
:103DEC00A10021082300C60047082200A0000330D0
:103DFC00A036890BFE2E2008A10021082300C70045
:103E0C003F3042052200A000230044082200A100FC
:103E1C000230A135FF3E031D0F2F2135C039200480
:103E2C00A2002208C3003F30230043052200A0005B
:103E3C00230044082200A1000430A135FF3E031DDD
:103E4C00232F2135C0392004A2002208C4001F30C2
:103E5C00230045052200A000230044082200A100F5
:103E6C000630A135FF3E031D372F21358039200444
:103E7C00A2002208C5001F30230047052200A00025
:103E8C00230046082200A1000430A135FF3E031D8B
:103E9C004B2F2135E0392004A2002208C600230054
:103EAC00390801392200A0000130A035890B5B2FA5
:103EBC0023003D0801392200A1000230A135890BF5
:103ECC00642F23003F0801392200A2000330A235E1
:103EDC00890B6D2F23003E0801392200A30004300A
:103EEC00A335890B762F23003B0801392200A4004F
:103EFC000530A435890B7F2F2300360801392200A9
:103F0C00A5000630A535890B882F23003708013909
:103F1C002200A6000630A635FF3E031D912F263544
:103F2C002504240423042204210420040138A700BE
:103F3C002708C7000130230035052200A00023000C
:103F4C00380801392200A1000130A135890BAB2FB3
:103F5C0023003A0801392200A2000230A235890B55
:103F6C00B42F2300330801392200A3000330A335FA
:103F7C00890BBD2F2300310801392200A400043025
:103F8C00A435890BC62F2300340801392200A50063
:103F9C000530A535890BCF2F2300320801392200BB
:103FAC00A6000630A635890BD82F23003C08013912
:103FBC002200A7000630A735FF3E031DE12F273551
:103FCC002604250424042304220421042004A8002C
:103FDC002808C80043302100A0000130A1000630A1
:103FEC002200A00020082100A2000030B531642579
:103FFC009831BB2EF3007308F03EF100F20126302D
:10400C00F23D710886007208870070088100080074
:10401C002100C700B231F622A031003A031D262838
:10402C0000302100BD000F30BC004230BB004030DE
:10403C00BA00BE01BF01BF0AC00191315621A031A7
:10404C0082302100C600DD30890B2A28C60B2A28B5
:10405C0000320F30B331C323A031693A0319392828
:10406C00B231F122080003302100C6004608A3003B
:10407C000D30B3316123A0312100470A031D4828BC
:10408C00A3014F282100470803398038C600460891
:10409C00A3001030B3316123A0312100450A031D68
:1040AC005928A301612821004508073909078038E0
:1040BC00C6004608A3001130B3316123A03104308F
:1040CC002100C6004608A3001230B3316123200042
:1040DC00EF01EF0A08002100A200220886008701E8
:1040EC000108A00020082400A0002100220886005E
:1040FC008701413F2400A10021002208860087018E
:10410C00423F2400A2002100220886008701433F81
:10411C002400A3002100220886008701443F2400CC
:10412C00A4002100220886008701453F2400A50039
:10413C002100220886008701463F2400A6002100AA
:10414C00220886008701473F2400A700210022088F
:10415C0086008701483F2400A80021002208860021
:10416C008701493F2400A900210022080A3E86004D
:10417C00870101080139A00020082400AA002100B1
:10418C0022080A3E8600870101360139A00020086A
:10419C002400AB00210022080A3E8600870101089A
:1041AC00A0000230A036890BD82820080139A100C4
:1041BC0021082400AC00210022080A3E8600870159
:1041CC000108A0000330A036890BE928200801392A
:1041DC00A10021082400AD00210022080A3E86001F
:1041EC0087010108A0000430A036890BFA282008AA
:1041FC000139A10021082400AE00210022080A3E4A
:10420C00860087010108A0000530A036890B0B2918
:10421C0020080139A10021082400AF002100220848
:10422C000B3E8600870101080139A00020082400FC
:10423C00B000210022080B3E8600870101360139AF
:10424C00A00020082400B100210022080B3E8600AB
:10425C0087010108A0000230A036890B3229200802
:10426C000139A10021082400B200210022080C3ED3
:10427C008600870101080139A00020082400B30042
:10428C00210022080C3E8600870101360139A0006E
:10429C0020082400B400210022080C3E860087016F
:1042AC000108A0000230A036890B592920080139D9
:1042BC00A10021082400B50008002100B300972AB2
:1042CC001630B3318423A13121002008B00021081D
:1042DC00B100B136B00CB136B00C3008B2003208B7
:1042EC002300E0001530B3318423A13121002008D4
:1042FC00B0002108B100B136B00CB136B00C3008AA
:10430C00B20032082300E1001130B3318423A13113
:10431C0021002008B0002108B100B136B00CB13634
:10432C00B00C3008B20032082300E2001230B33176
:10433C008423A13121002008B0002108B100B1363E
:10434C00B00CB136B00C3008B20032082300E300D8
:10435C001430B3318423A13121002008B00021088E
:10436C00B100B136B00CB136B00C3008B200320826
:10437C002300E4001330B331842321002008B00063
:10438C002108B100B136B00CB136B00C3008B20017
:10439C0032082300E50008001630B3318423A13124
:1043AC0021002008B0002108B100B136B00CB136A4
:1043BC00B00C3008B20032082300E0001530B331E5
:1043CC008423A13121002008B0002108B100B136AE
:1043DC00B00CB136B00C3008B20032082300E1004A
:1043EC00B231EE22A131003A0319442A1130B33113
:1043FC008423A13121002008B0002108B100B1367E
:10440C00B00CB136B00C3008B20032082300E20018
:10441C001230B3318423A13121002008B0002108CF
:10442C00B100B136B00CB136B00C3008B200320865
:10443C002300E3001430B3318423A1312100200880
:10444C00B0002108B100B136B00CB136B00C300858
:10445C00B20032082300E4001330B3318423A131BD
:10446C0021002008B0002108B100B136B00CB136E3
:10447C00B00C3008B20032082300E500B231EB2258
:10448C00A131003A03198D2AB331DA23A13121006D
:10449C002908B0002A08B1000630B200310DB10C69
:1044AC00B00CB20B542A30082300E600210031086E
:1044BC002300E700B331F323A13121002908B00018
:1044CC002A08B1000630B200310DB10CB00CB20BA1
:1044DC006A2A30082300E800210031082300E90093
:1044EC00B4310C24A13121002908B0002A08B100F4
:1044FC000630B200310DB10CB00CB20B802A300872
:10450C002300EA00210031082300EB0008002300FF
:10451C00E601E701E801E901FF30EA000030EB00B9
:10452C000800210033080A3A03196629013A0319D5
:10453C00D229A02A08002000CB0107304B02031817
:10454C00882BCA0106304A020318DC2A4B08A0004B
:10455C00A1012008F0002108F1000630F200003023
:10456C00F300B4312524A23100302000A200B83071
:10457C00A30070082207A4007108233DA5004A0877
:10458C002407840025080318250A85000008A600C6
:10459C004A08343E86008701260881000130A000BD
:1045AC002008CA0706304A02031CAC2ACA010A308A
:1045BC004A020318FD2A4A08CE3E860001308700C5
:1045CC000108543E840087300318013E8500000822
:1045DC00A0004A08403E8600870120088100013077
:1045EC00A0002008CA070A304A02031CE12A49032A
:1045FC00FF3AA00042080739A1002108F000450845
:10460C003406B3319823A231200020074406A200BF
:10461C002208BA004503FF3AA00040080739A10060
:10462C002108F00035084106B3319823A23120004F
:10463C0020074706A2002208BB004203FF3AA00055
:10464C0048080739A1002108F00036084606B331A6
:10465C009823A231200020074006A2002208BC00AB
:10466C004303FF3AA00047080739A1002108F000D6
:10467C0037084406B3319823A231200020074206A4
:10468C00A2002208BD004303FF3AA00046080739E8
:10469C00A1002108F00038084106B3319823A2315B
:1046AC00200020074406A2002208BE004503FF3A62
:1046BC00A00048080739A1002108F0003908470676
:1046CC00B3319823A231200020074906A20022080A
:1046DC00BF006830A0002008F0000630F100003068
:1046EC00F2003A30B6313126A23170087104031948
:1046FC00882B01302000A0002008CB0707304B028C
:10470C00031CA72A073020004B06031D8F2B0030FB
:10471C0008004B08A000A1012008A100A00120085E
:10472C00003EA3000230213DA4005430A500873088
:10473C00A60023082507A7002408263DA80023006F
:10474C00510820002707840028080318280A850030
:10475C000008A9004B08AA00AB012A08AB00AA016B
:10476C002A08003EAD0001302B3DAE005430AF00A6
:10477C008730B0002D082F07B1002E08303DB20055
:10478C0022006C0820003107840032080318320A1A
:10479C00850000082906B30033082300D800200048
:1047AC004B08A000A1012008A100A0012008003E98
:1047BC00A3000230213DA4005430A5008730A60090
:1047CC0023082507A7002408263DA800230053082A
:1047DC0020002707840028080318280A85000008F1
:1047EC00A9004B08AA00AB012A08AB00AA012A08B1
:1047FC00003EAD0001302B3DAE005430AF00873091
:10480C00B0002D082F07B1002E08303DB200220059
:10481C006A0820003107840032080318320A850028
:10482C0000082906B30033082300D90020004B08E8
:10483C00A000A1012008A100A0012008003EA300B7
:10484C000230213DA4005430A5008730A600230877
:10485C002507A7002408263DA800230055082000A2
:10486C002707840028080318280A85000008A900D7
:10487C004B08AA00AB012A08AB00AA012A08003E8B
:10488C00AD0001302B3DAE005430AF008730B0008E
:10489C002D082F07B1002E08303DB20022006D0804
:1048AC0020003107840032080318320A8500000802
:1048BC002906B30033082300DA0020004B08A000BF
:1048CC00A1012008A100A0012008003EA300023095
:1048DC00213DA4005430A5008730A60023082507ED
:1048EC00A7002408263DA800230050082000270715
:1048FC00840028080318280A85000008A9004B0822
:10490C00AA00AB012A08AB00AA012A08003EAD00A0
:10491C0001302B3DAE005430AF008730B0002D0875
:10492C002F07B1002E08303DB2002200680820008D
:10493C003107840032080318320A85000008290662
:10494C00B30033082300DB0020004B08A000A101BA
:10495C002008A100A0012008003EA3000230213D48
:10496C00A4005430A5008730A60023082507A70013
:10497C002408263DA80023005208200027078400A5
:10498C0028080318280A85000008A9004B08AA006B
:10499C00AB012A08AB00AA012A08003EAD00013089
:1049AC002B3DAE005430AF008730B0002D082F07E0
:1049BC00B1002E08303DB2002200690820003107FA
:1049CC00840032080318320A850000082906B30057
:1049DC0033082300DC0020004B08A000A1012008B4
:1049EC00A100A0012008003EA3000230213DA4003C
:1049FC005430A5008730A60023082507A7002408FB
:104A0C00263DA8002300570820002707840028080B
:104A1C000318280A85000008A9004B08AA00AB015E
:104A2C002A08AB00AA012A08003EAD0001302B3D3C
:104A3C00AE005430AF008730B0002D082F07B10006
:104A4C002E08303DB20022006B0820003107840094
:104A5C0032080318320A850000082906B30033080F
:104A6C002300DD0020004B08A000A1012008A100BC
:104A7C00A0012008003EA3000230213DA4005430C8
:104A8C00A5008730A60023082507A7002408263D8B
:104A9C00A8002300540820002707840028080318C6
:104AAC00280A85000008A9004B08AA00AB012A08B7
:104ABC00AB00AA012A08003EAD0001302B3DAE0030
:104ACC005430AF008730B0002D082F07B1002E08EE
:104ADC00303DB20023004E0820003107840032081C
:104AEC000318320A850000082906B3003308230096
:104AFC00DE0020004B08A000A1012008A100A001AD
:104B0C002008003EA3000230213DA4005430A50033
:104B1C008730A60023082507A7002408263DA800F7
:104B2C002300560820002707840028080318280AA9
:104B3C0085000008A9004B08AA00AB012A08AB00AD
:104B4C00AA012A08003EAD0001302B3DAE005430C6
:104B5C00AF008730B0002D082F07B1002E08303D74
:104B6C00B20023004F0820003107840032080318DC
:104B7C00320A850000082906B30033082300DF0041
:104B8C0020004B08A000A1012008A100A0012008D2
:104B9C00003EA3000230213DA4005430A500873014
:104BAC00A60023082507A7002408263DA8002300FB
:104BBC004F0820002707840028080318280A8500BE
:104BCC000008A9004B08AA00AB012A08AB00AA01F7
:104BDC002A08003EAD0001302B3DAE005430AF0032
:104BEC008730B0002D082F07B1002E08303DB200E1
:104BFC002200680820003107840032080318320AAA
:104C0C00850000082906B30033082400C7002000E3
:104C1C004B08A000A1012008A100A0012008003E23
:104C2C00A3000230213DA4005430A5008730A6001B
:104C3C0023082507A7002408263DA80023005208B6
:104C4C0020002707840028080318280A850000087C
:104C5C00A9004B08AA00AB012A08AB00AA012A083C
:104C6C00003EAD0001302B3DAE005430AF0087301C
:104C7C00B0002D082F07B1002E08303DB2002200E5
:104C8C006D0820003107840032080318320A8500B1
:104C9C0000082906B30033082400C80020004B0884
:104CAC00A000A1012008A100A0012008003EA30043
:104CBC000230213DA4005430A5008730A600230803
:104CCC002507A7002408263DA80023004E08200035
:104CDC002707840028080318280A85000008A90063
:104CEC004B08AA00AB012A08AB00AA012A08003E17
:104CFC00AD0001302B3DAE005430AF008730B0001A
:104D0C002D082F07B1002E08303DB20022006B0891
:104D1C0020003107840032080318320A850000088D
:104D2C002906B30033082400C90020004B08A0005A
:104D3C00A1012008A100A0012008003EA300023020
:104D4C00213DA4005430A5008730A6002308250778
:104D5C00A7002408263DA800230057082000270799
:104D6C00840028080318280A85000008A9004B08AD
:104D7C00AA00AB012A08AB00AA012A08003EAD002C
:104D8C0001302B3DAE005430AF008730B0002D0801
:104D9C002F07B1002E08303DB20022006A08200017
:104DAC003107840032080318320A850000082906EE
:104DBC00B30033082400CA0020004B08A000A10156
:104DCC002008A100A0012008003EA3000230213DD4
:104DDC00A4005430A5008730A60023082507A7009F
:104DEC002408263DA800230055082000270784002E
:104DFC0028080318280A85000008A9004B08AA00F7
:104E0C00AB012A08AB00AA012A08003EAD00013014
:104E1C002B3DAE005430AF008730B0002D082F076B
:104E2C00B1002E08303DB20022006C082000310782
:104E3C00840032080318320A850000082906B300E2
:104E4C0033082400CB0020004B08A000A10120084F
:104E5C00A100A0012008003EA3000230213DA400C7
:104E6C005430A5008730A60023082507A700240886
:104E7C00263DA80023005608200027078400280898
:104E8C000318280A85000008A9004B08AA00AB01EA
:104E9C002A08AB00AA012A08003EAD0001302B3DC8
:104EAC00AE005430AF008730B0002D082F07B10092
:104EBC002E08303DB2002200690820003107840022
:104ECC0032080318320A850000082906B30033089B
:104EDC002400CC0020004B08A000A1012008A10058
:104EEC00A0012008003EA3000230213DA400543054
:104EFC00A5008730A60023082507A7002408263D17
:104F0C00A800230053082000270784002808031852
:104F1C00280A85000008A9004B08AA00AB012A0842
:104F2C00AB00AA012A08003EAD0001302B3DAE00BB
:104F3C005430AF008730B0002D082F07B1002E0879
:104F4C00303DB200230051082000310784003208A4
:104F5C000318320A850000082906B3003308240020
:104F6C00CD0020004B08A000A1012008A100A00149
:104F7C002008003EA3000230213DA4005430A500BF
:104F8C008730A60023082507A7002408263DA80083
:104F9C002300540820002707840028080318280A37
:104FAC0085000008A9004B08AA00AB012A08AB0039
:104FBC00AA012A08003EAD0001302B3DAE00543052
:104FCC00AF008730B0002D082F07B1002E08303D00
:104FDC00B200230050082000310784003208031867
:104FEC00320A850000082906B30033082400CE00DD
:044FFC000130080078
:105004006400800101310130FE020030FF3B7F0863
:105014007E0403190034032800302100B800003056
:10502400B7000030B6000030B5002F082E042D0460
:105034002C0403195828B901B90AAF1B2D280130D3
:10504400AC35AD0DAE0DAF0D890B22280130B40087
:105054003408B9071F280130B535B60DB70DB80DA2
:10506400890B2E282F083302031D42282E083202F2
:10507400031D42282D083102031D42282C0830024A
:10508400031C4D282C08B0022D08B13B2E08B23B5E
:105094002F08B33B35140130AF36AE0CAD0CAC0C5D
:1050A400890B4E280130B902031D2D283808AF00A2
:1050B4003708AE003608AD003508AC000800200003
:1050C4009712F03031008D052000E90121006D08B0
:1050D400A1006C08A0000630EE006E08A200FA30B1
:1050E400B5316425A831CC302100EE006E08A00053
:1050F4008230B3312023A8319B284A302100A000FC
:10510400B830A1002030EE006E08A2002030B53186
:105114006425A831A4282A302100A000B830A100B9
:105124002030EE006E08A2002030B5316425A8318D
:10513400A42820006C080A3A03197F28013A0319AD
:105144008D28A428B4315C24A831AD313025A83190
:10515400A831B42031000D08F03902388D00200048
:10516400971608002D29220065080319E6287F30C8
:105174002100AE002E08AF007F30AE002E08B00034
:105184007F30AE002E08B1007F30AE002E08B20092
:105194007F30AE002E08B3007F30AE002E08B4007E
:1051A400FF30AE002E08B500FF30AE002E08B6006A
:1051B400AF30A0000030A1000830AE002E08A200DD
:1051C4000030B531642508005F302100AE002E08A0
:1051D400AF00DF30AE002E08B0008F30AE002E08D6
:1051E400B100B201FF30AE002E08B300FF30AE00B4
:1051F4002E08B400AF30A0000030A1000630AE008D
:105204002E08A2000030B531642508007F3021004B
:10521400AE002E08AF007F30AE002E08B0007F3005
:10522400AE002E08B1007F30AE002E08B200B430BC
:10523400AE002E08B3003F30AE002E08B400AF30ED
:10524400A0000030A1000630AE002E08A2000030FD
:10525400B5316425080020006C080A3A0319B52802
:10526400013A031908293629080021004208CE0012
:105274004308CF004408D0004508D1003E09D200BD
:105284003F09D3004009D4004109D500D20A0319CB
:10529400D30A0319D40A0319D50A5208CE075308AE
:1052A400CF3D5408D03D5508D13D5108AF005008BA
:1052B400AE004F08AD004E08AC003A08D6003B08DB
:1052C400D7003C08D8003D08D9003E09DA003F0960
:1052D400DB004009DC004109DD00DA0A0319DB0ABE
:1052E4000319DC0A0319DD0A5A08D6075B08D73DFF
:1052F4005C08D83D5D08D93D5908A3005808A200B0
:105304005708A1005608A0004A08DE004B08DF0039
:105314004C08E0004D08E1004609E2004709E300BB
:105324004809E4004909E500E20A0319E30A0319FC
:10533400E40A0319E50A6208DE076308DF3D64082E
:10534400E03D6508E13D6108A7006008A6005F082C
:10535400A5005E08A400B5313425A9312100230835
:10536400B3002208B2002108B1002008B000A8311F
:105374000E2021002C084607E6002D08473DE700D3
:105384002E08483DE8002F08493DE9006908BD00A2
:105394006808BC006708BB006608BA000800B231A0
:1053A400D922A9312000DD005D08E10023000F1C93
:1053B400E0290C082000DD005D08E20040302300F5
:1053C40011052000DD0023000F083C3920005D0496
:1053D400DE00DF015E082200D80020005F08220002
:1053E400D900572A2000ED01ED0A080020006D08BD
:1053F400031D2E2A61080319152A6208DD005D08C1
:10540400F0006E08B3313F23A9312000DE006E089E
:10541400F03EDF00E0012630E03D5F0886006008D2
:1054240087005E08202A6E08F03EDD00DE0126308B
:10543400DE3D5D0886005E088700620881006E0814
:10544400DD005D08FA006208B631E726013020006D
:10545400DD005D08EE0708006208DD005D08EE006F
:10546400ED010800200061080319472A6E08F03E88
:10547400860087012630873D0108DD005D08F000C5
:105484006E08B3317223A9314F2A20006E08F03E12
:10549400860087012630873D010823008C000130F7
:1054A4002000DD005D08EE07080022005908003ADC
:1054B40003195D2A6B2A5808083A0319F429043A97
:1054C4000319342A243A0319F829043A0319342A0B
:1054D4006B2A08002100A100262D003020000C1AA0
:1054E40001302300A000003020008C1A013023007A
:1054F400A10000302000101801302300A200003069
:105504002000901801302300A300003020000F1B5E
:1055140001302300A400003020008F1A0130230042
:10552400A500003020000F1A01302300A60000302F
:1055340020008E1B01302300A700003020000F182C
:1055440001302300A800003020008F180130230010
:10555400A900003020008F1901302300AA00003078
:1055640020000F1901302300AB0000302000101977
:1055740001302300AC00003020000C1B013023005C
:10558400AD00003020008C1B01302300AE00200849
:10559400031DD22A01302100A00020082000E807C2
:1055A40023002108031DDC2A01302100A00020086B
:1055B4002000E70723002208031DE62A013021000A
:1055C400A00020082000E60723002308031DF02A7A
:1055D40001302100A00020082000E5072300240852
:1055E400031DFA2A01302100A00020082000E4074E
:1055F40023002508031D042B01302100A0002008EE
:105604002000E30723002608031D0E2B0130210090
:10561400A00020082200E40723002708031D182BFC
:1056240001302100A00020082200E30723002808FD
:10563400031D222B01302100A00020082200E007D6
:1056440023002908031D2C2B01302100A000200871
:105654002200DF0723002A08031D362B0130210016
:10566400A00020082200E20723002B08031D402B82
:1056740001302100A00020082200E10723002C08AB
:10568400031D4A2B01302100A00020082200DE0760
:1056940023002D08031D542B01302100A0002008F5
:1056A4002200DD0723002E08031D5E2B013021009C
:1056B400A00020082200DC0724003608230020066E
:1056C4000319692B2000E8012300B101B10A240069
:1056D4003708230021060319742B2000E701230057
:1056E400B201B20A240038082300220603197F2BD2
:1056F4002000E6012300B301B30A24003908230083
:10570400230603198A2B2000E5012300B401B40AFF
:1057140024003A08230024060319952B2000E401F1
:105724002300B501B50A24003B082300250603190C
:10573400A02B2000E3012300B601B60A24003C0894
:10574400230026060319AB2B2200E4012300B70132
:10575400B70A24003D08230027060319B62B2200AC
:10576400E3012300B801B80A24003E0823002806F8
:105774000319C12B2200E0012300B901B90A240056
:105784003F08230029060319CC2B2200DF01230044
:10579400BA01BA0A2400400823002A060319D72BA9
:1057A4002200E2012300BB01BB0A240041082300BC
:1057B4002B060319E22B2200E1012300BC01BC0AE1
:1057C4002400420823002C060319ED2B2200DE01DD
:1057D4002300BD01BD0A2400430823002D0603193C
:1057E400F82B2200DD012300BE01BE0A2400440878
:1057F40023002E060319032C2200DC012300BF0121
:10580400BF0A20082100A00020082400B6002300BD
:1058140021082100A00020082400B700230022084A
:105824002100A00020082400B80023002308210040
:10583400A00020082400B900230024082100A000AF
:1058440020082400BA00230025082100A000200815
:105854002400BB00230026082100A0002008240007
:10586400BC00230027082100A00020082400BD005C
:10587400230028082100A00020082400BE002300E3
:1058840029082100A00020082400BF0023002A08C2
:105894002100A00020082400C00023002B082100C0
:1058A400A00020082400C10023002C082100A0002F
:1058B40020082400C20023002D082100A000200895
:1058C4002400C30023002E082100A0002008240087
:1058D400C400053020006802031C722C2300B101AF
:1058E400053020006702031C792C2300B201053027
:1058F40020006602031C802C2300B3010530200025
:105904006502031C872C2300B401053020006402C7
:10591400031C8E2C2300B501053020006302031CF8
:10592400952C2300B601053022006402031C9C2C34
:105934002300B701053022006302031CA32C2300BB
:10594400B801053022006002031CAA2C2300B9010F
:10595400053022005F02031CB12C2300BA0105307C
:1059640022006202031CB82C2300BB010530220074
:105974006102031CBF2C2300BC01053022005E021F
:10598400031CC62C2300BD01053022005D02031C4C
:10599400CD2C2300BE01053022005C02031C08004C
:1059A4002300BF010800003020008F1901302300BC
:1059B400AF00003020000F1901302300B0002F0881
:1059C400031DEA2C01302100A00020082200DB077F
:1059D40023003008031DF42C01302100A00020080E
:1059E4002200DA072400450823002F060319FF2CA0
:1059F4002200DB012300C001C00A24004608230062
:105A0400300603190A2D2200DA012300C101C10A5C
:105A14002F082100A00020082400C500230030081E
:105A24002100A00020082400C600053022005B02EB
:105A3400031C1E2D2300C001053022005A02031C42
:105A440008002300C1010800210021080A3A0319B3
:105A54006F2A013A0319D52C2F2D08002100EA01E1
:105A6400EB0101306B02003003196A0203180800CD
:105A7400240020082200A000A101210821006B02BB
:105A8400031D482D2200200821006A0203185B2D03
:105A9400F0302200A0002230A10021006A08220078
:105AA4002007860021006B082200213D8700810128
:105AB400DE2D240022082200A000A10121006B0891
:105AC40022002102031D6A2D21006A0822002002FF
:105AD4000318802DF030A0002230A10021006A08B4
:105AE40022002007A20021006B082200213DA30010
:105AF4002208860023088700FF30DD2D21006A0874
:105B0400BA006B08BB00BC01BD01240020082200C0
:105B1400A000A101A201A30123082100C1002200C9
:105B240022082100C000220021082100BF00220019
:105B340020082100BE00240022082200A400A501A0
:105B4400A601A70127082100C5002200260821007C
:105B5400C400220025082100C300220024082100DB
:105B6400C2000030C9000030C8000030C700003057
:105B7400C6000030CD000030CC000030CB00FF3038
:105B8400CA00A9313721AD3121003A082200A8000A
:105B9400F030A9002230AA0021006A082200290757
:105BA400AB0021006B0822002A3DAC002B088600C4
:105BB4002C08870028088100240021082200A00066
:105BC400A101210821006B02031DEC2D22002008F5
:105BD40021006A020318032E6A08003E2200A00076
:105BE400013021006B3D2200A100F030A2002230E0
:105BF400A3002008220786002108233D8700810195
:105C0400922E240023082200A000A10121006B0889
:105C140022002102031D122E21006A082200200204
:105C240003182E2E21006A08003E2200A000013035
:105C340021006B3D2200A100F030A2002230A3001D
:105C440020082207A4002108233DA500240886007B
:105C540025088700FF30912E21006A08BA006B08DE
:105C6400BB00BC01BD01240021082200A000A10149
:105C7400A201A30123082100C1002200220821005F
:105C8400C000220021082100BF00220020082100BA
:105C9400BE00240023082200A400A501A601A70138
:105CA40027082100C500220026082100C400220084
:105CB40025082100C300220024082100C20000306E
:105CC400C9000030C8000030C7000030C6000030F2
:105CD400CD000030CC000030CB00FF30CA00A93129
:105CE4003721AD3121003A082200A80021006A08BA
:105CF400003E2200A900013021006B3D2200AA00D1
